:020000040800F2
:1000000000500020450D00087D0C00087F0C000802
:10001000810C0008830C0008850C0008000000001B
:10002000000000000000000000000000870C000835
:10003000890C0008000000008B0C00088D0C0008E3
:100040008D0D00088D0D00088D0D00088D0D000828
:100050008D0D00088D0D00088D0D00088D0D000818
:100060008D0D00088D0D00088D0D00088D0D000808
:100070008D0D00088D0D00088D0D00088D0D0008F8
:100080008D0D00088D0D00088D0D00088D0D0008E8
:100090008D0D00088D0D00088D0D00088D0D0008D8
:1000A0008D0D00088D0D00088D0D00088D0D0008C8
:1000B0008D0D00088D0D00088D0D00088D0D0008B8
:1000C0008D0D00088D0D00088D0D00088D0D0008A8
:1000D0008D0D00088D0D00088D0D00088D0D000898
:1000E0008D0D00088D0D00088D0D0008000000002A
:1000F0000000000000000000000000000000000000
:0C01000000000000000000005FF808F1A3
:1001100010B5054C237833B9044B13B10448AFF341
:1001200000800123237010BD400400200000000067
:10013000F826000808B5034B1BB103490348AFF389
:10014000008008BD0000000044040020F8260008DC
:1001500081F0004102E000BF83F0004330B54FEA78
:1001600041044FEA430594EA050F08BF90EA020FE5
:100170001FBF54EA000C55EA020C7FEA645C7FEA78
:10018000655C00F0E2804FEA5454D4EB5555B8BF9B
:100190006D420CDD2C4480EA020281EA030382EA0C
:1001A000000083EA010180EA020281EA0303362D9E
:1001B00088BF30BD11F0004F4FEA01314FF4801C71
:1001C0004CEA113102D0404261EB410113F0004F83
:1001D0004FEA03334CEA133302D0524263EB43033A
:1001E00094EA050F00F0A780A4F10104D5F1200ED8
:1001F0000DDB02FA0EFC22FA05F2801841F1000133
:1002000003FA0EF2801843FA05F359410EE0A5F106
:1002100020050EF1200E012A03FA0EFC28BF4CF037
:10022000020C43FA05F3C01851EBE37101F00045ED
:1002300007D54FF0000EDCF1000C7EEB00006EEBFA
:100240000101B1F5801F1BD3B1F5001F0CD3490884
:100250005FEA30004FEA3C0C04F101044FEA4452DB
:1002600012F5800F80F09A80BCF1004F08BF5FEA62
:10027000500C50F1000041EB045141EA050130BD42
:100280005FEA4C0C404141EB0101013C28BFB1F554
:10029000801FE9D291F0000F04BF01460020B1FA9F
:1002A00081F308BF2033A3F10B03B3F120020CDA72
:1002B0000C3208DD02F1140CC2F10C0201FA0CF050
:1002C00021FA02F10CE002F11402D8BFC2F1200CB5
:1002D00001FA02F120FA0CFCDCBF41EA0C0190406B
:1002E000E41AA2BF01EB0451294330BD6FEA0404B4
:1002F0001F3C1CDA0C340EDC04F11404C4F120029F
:1003000020FA04F001FA02F340EA030021FA04F3B0
:1003100045EA030130BDC4F10C04C4F1200220FA07
:1003200002F001FA04F340EA0300294630BD21FA45
:1003300004F0294630BD94F0000F83F4801306BF0B
:1003400081F480110134013D4EE77FEA645C18BFFF
:100350007FEA655C29D094EA050F08BF90EA020F96
:1003600005D054EA000C04BF1946104630BD91EA8E
:10037000030F1EBF0021002030BD5FEA545C05D191
:100380004000494128BF41F0004130BD14F58004D0
:100390003CBF01F5801130BD01F0004545F0FE4144
:1003A00041F470014FF0000030BD7FEA645C1ABF79
:1003B000194610467FEA655C1CBF0B46024650EAB0
:1003C000013406BF52EA033591EA030F41F40021DC
:1003D00030BD00BF90F0000F04BF0021704730B562
:1003E0004FF4806404F132044FF000054FF0000137
:1003F00050E700BF90F0000F04BF0021704730B5F8
:100400004FF4806404F1320410F0004548BF4042CC
:100410004FF000013EE700BF42004FEAE2014FEA21
:1004200031014FEA02701FBF12F07F4393F07F4FFC
:1004300081F06051704732F07F4208BF704793F0FF
:100440007F4F04BF41F40021704730B54FF4607412
:1004500001F0004521F000411CE700BF50EA010215
:1004600008BF704730B54FF000050AE050EA0102BE
:1004700008BF704730B511F0004502D5404261EB2E
:1004800041014FF4806404F132045FEA915C3FF46F
:10049000D8AE4FF003025FEADC0C18BF03325FEA0C
:1004A000DC0C18BF033202EBDC02C2F1200300FABD
:1004B00003FC20FA02F001FA03FE40EA0E0021FAE2
:1004C00002F11444BDE600BF70B54FF0FF0C4CF4D0
:1004D000E06C1CEA11541DBF1CEA135594EA0C0F82
:1004E00095EA0C0F00F0DEF82C4481EA030621EABD
:1004F0004C5123EA4C5350EA013518BF52EA0335F8
:1005000041F4801143F4801338D0A0FB02CE4FF0A9
:100510000005E1FB02E506F00042E0FB03E54FF0D9
:100520000006E1FB03569CF0000F18BF4EF0010ED1
:10053000A4F1FF04B6F5007F64F5407404D25FEACD
:100540004E0E6D4146EB060642EAC62141EA555180
:100550004FEAC52040EA5E504FEACE2EB4F1FD0CC2
:1005600088BFBCF5E06F1ED8BEF1004F08BF5FEA40
:10057000500E50F1000041EB045170BD06F00046F2
:1005800046EA010140EA020081EA0301B4EB5C049F
:10059000C2BFD4EB0C0541EA045170BD41F4801197
:1005A0004FF0000E013C00F3AB8014F1360FDEBFBC
:1005B000002001F0004170BDC4F10004203C35DA98
:1005C0000C341BDC04F11404C4F1200500FA05F31B
:1005D00020FA04F001FA05F240EA020001F00042BC
:1005E00021F0004110EBD37021FA04F642EB060132
:1005F0005EEA430E08BF20EAD37070BDC4F10C045C
:10060000C4F1200500FA04F320FA05F001FA04F21F
:1006100040EA020001F0004110EBD37041F100010B
:100620005EEA430E08BF20EAD37070BDC4F1200516
:1006300000FA05F24EEA020E20FA04F301FA05F27E
:1006400043EA020321FA04F001F0004121FA04F226
:1006500020EA020000EBD3705EEA430E08BF20EAF6
:10066000D37070BD94F0000F0FD101F00046400030
:1006700041EB010111F4801F08BF013CF7D041EAB2
:10068000060195F0000F18BF704703F000465200B6
:1006900043EB030313F4801F08BF013DF7D043EA87
:1006A0000603704794EA0C0F0CEA135518BF95EA3D
:1006B0000C0F0CD050EA410618BF52EA4306D1D1C4
:1006C00081EA030101F000414FF0000070BD50EAE3
:1006D000410606BF1046194652EA430619D094EA6D
:1006E0000C0F02D150EA013613D195EA0C0F05D157
:1006F00052EA03361CBF104619460AD181EA0301AB
:1007000001F0004141F0FE4141F470014FF0000062
:1007100070BD41F0FE4141F4780170BD70B54FF0FD
:10072000FF0C4CF4E06C1CEA11541DBF1CEA13557D
:1007300094EA0C0F95EA0C0F00F0A7F8A4EB05045F
:1007400081EA030E52EA03354FEA013100F0888056
:100750004FEA03334FF0805545EA131343EA12631F
:100760004FEA022245EA111545EA10654FEA0026D4
:100770000EF000419D4208BF964244F1FD0404F58D
:10078000407402D25B084FEA3202B61A65EB0305E9
:100790005B084FEA32024FF480104FF4002CB6EBA6
:1007A000020E75EB030E22BFB61A754640EA0C0026
:1007B0005B084FEA3202B6EB020E75EB030E22BF66
:1007C000B61A754640EA5C005B084FEA3202B6EBA7
:1007D000020E75EB030E22BFB61A754640EA9C0066
:1007E0005B084FEA3202B6EB020E75EB030E22BF36
:1007F000B61A754640EADC0055EA060E18D04FEAF4
:10080000051545EA16754FEA06164FEAC30343EA93
:1008100052734FEAC2025FEA1C1CC0D111F4801F60
:100820000BD141EA00014FF000004FF0004CB6E759
:1008300011F4801F04BF01430020B4F1FD0C88BFF8
:10084000BCF5E06F3FF6AFAEB5EB030C04BFB6EB03
:10085000020C5FEA500C50F1000041EB045170BDF6
:100860000EF0004E4EEA113114EB5C04C2BFD4EB23
:100870000C0541EA045170BD41F480114FF0000EA7
:10088000013C90E645EA060E8DE60CEA135594EA23
:100890000C0F08BF95EA0C0F3FF43BAF94EA0C0F26
:1008A0000AD150EA01347FF434AF95EA0C0F7FF49B
:1008B00025AF104619462CE795EA0C0F06D152EAEF
:1008C00003353FF4FDAE1046194622E750EA4106D3
:1008D00018BF52EA43067FF4C5AE50EA41047FF4E4
:1008E0000DAF52EA43057FF4EBAE12E74A0011D296
:1008F00012F5001211D20DD56FF47873B3EB62527A
:100900000ED44FEAC12343F0004343EA505323FA85
:1009100002F070474FF00000704750EA013002D1FA
:100920004FF0FF3070474FF0000070472DE9F04165
:1009300086B0054664230293012301930DF117024B
:1009400000927522D02101F00BF89DF81730682B2A
:1009500003D0012006B0BDE8F08100248DF81640D8
:100960004FF06408CDF80880012601960DF11607B6
:10097000009733466B22D021284600F03FFF072323
:100980008DF81630CDF8088001960097334619226D
:10099000D021284600F032FF8DF81640CDF80880AF
:1009A0000196009733461C22D021284600F026FFEE
:1009B0008DF81640CDF808800196009733461B222B
:1009C000D021284600F01AFF2046C3E700000000AF
:1009D00070B586B00C46642302930623019304ABE2
:1009E000009301233B22D02100F0BAFF9DF8103084
:1009F0009DF8110040EA032000B220809DF81230DB
:100A00009DF8136046EA032636B266809DF81430DE
:100A10009DF8155045EA03252DB2A580FFF7EAFCA5
:100A200000220F4BFFF750FDC4E902013046FFF7EB
:100A3000E1FC00220A4BFFF747FDC4E90401284608
:100A4000FFF7D8FC04A3D3E90023FFF767FEC4E94E
:100A5000060106B070BD00BF000000000029CC40B8
:100A60000000103F84B00F4B9A6942F020029A6157
:100A70009A6902F020020192019A9A6942F00802F2
:100A80009A619A6902F008020292029A9A6942F007
:100A900004029A619B6903F004030393039B04B06F
:100AA000704700BF0010024008B50B480B4B0360B5
:100AB0000B4B436000238360C3604FF480420261AC
:100AC00043618361C361036200F0BAFD00B908BDF0
:100AD00000F03AF8FBE700BF5C040020005800403B
:100AE000A086010010B586B00023029303930493FF
:100AF00005930268114B9A4201D006B010BD104C0C
:100B0000A36943F00803A361A36903F008030093FA
:100B1000009B4FF440630293122303930323059336
:100B200002A9084800F0F0F9E36943F48003E361A7
:100B3000E36903F480030193019BDEE70058004062
:100B400000100240000C014072B6FEE700B591B003
:100B50002822002106A801F00DFD00230193029335
:100B6000039304930593012206924FF48033079375
:100B70000A9202220D920E934FF4E0130F9306A8EF
:100B800001F0A8F880B90F230193022102910023FC
:100B900003934FF480620492059301A801F0CCFA0C
:100BA00020B911B05DF804FBFFF7CEFFFFF7CCFFD3
:100BB00008B500F013F9FFF7C9FFFFF753FFFFF780
:100BC00073FF00F069F81748FFF7B0FE164D29468D
:100BD0001448FFF7FDFE0022144BD5E90201FFF790
:100BE00073FC134CFFF782FE207000220F4BD5E9F7
:100BF0000401FFF769FCFFF779FE607000220B4BE0
:100C0000D5E90601FFF760FCFFF770FEA0706423D2
:100C100003222146074801F029FC322000F002F9A6
:100C2000D4E700BF5C040020B80400200000594055
:100C3000B00400201005002082B00E4B9A6942F0EB
:100C400001029A619A6902F001020092009ADA693F
:100C500042F08052DA61DB6903F080530193019B1B
:100C6000054A536823F0E06343F00073536002B019
:100C7000704700BF0010024000000140FEE7FEE7A1
:100C8000FEE7FEE7FEE770477047704708B500F0E3
:100C9000B7F808BD7047000008B50A480A4B036062
:100CA0004FF41653436000238360C36003610C223A
:100CB00042618361C36101F0A9FB00B908BDFFF780
:100CC00043FFFBE7100500200038014010B586B057
:100CD000002302930393049305930268174B9A42EF
:100CE00001D006B010BD03F558439A6942F4804222
:100CF0009A619A6902F480420092009A9A6942F0DD
:100D000004029A619B6903F004030193019B4FF471
:100D1000007302930223039303230593084C02A953
:100D2000204600F0F1F84FF4806302930023039310
:100D3000049302A9204600F0E7F8D2E7003801400A
:100D400000080140FFF7A6FF0B480C490C4A00239E
:100D500002E0D458C4500433C4188C42F9D3094A71
:100D6000094C002301E013600432A242FBD301F0DE
:100D7000DDFBFFF71DFF7047000000203C04002052
:100D80004C2700084004002060050020FEE700001A
:100D900010B504460E4B18784FF47A73B3FBF0F39A
:100DA0000C4A1068B0FBF3F000F09AF868B90F2C09
:100DB00001D901200AE0002221464FF0FF3000F067
:100DC00057F8054B1C60002000E0012010BD00BF5B
:100DD00004000020000000200800002008B5074A99
:100DE000136843F010031360032000F02FF80F2066
:100DF000FFF7CEFFFFF720FF002008BD00200240D4
:100E0000034A1168034B1B780B441360704700BF03
:100E10005805002004000020014B1868704700BFEF
:100E20005805002038B50446FFF7F6FF0546B4F133
:100E3000FF3F02D0044B1B781C44FFF7EDFF401B23
:100E4000A042FAD338BD00BF04000020074AD3688F
:100E500023F4E0631B041B0C000200F4E060034376
:100E600043F0BF6343F40033D360704700ED00E00C
:100E700000B5194BDB68C3F30223C3F1070CBCF1C7
:100E8000040F28BF4FF0040C03F1040EBEF1060F4F
:100E900018D9033B4FF0FF3E0EFA0CFC21EA0C017F
:100EA00099400EFA03F322EA0303194300280BDBEF
:100EB0000901C9B200F1604000F5614080F80013FB
:100EC0005DF804FB0023E5E700F00F000901C9B25B
:100ED000024B1954F4E700BF00ED00E014ED00E010
:100EE0000138B0F1807F0BD24FF0E0235861054A02
:100EF000F02182F823100020986107221A617047C0
:100F00000120704700ED00E070B582B00024A446D7
:100F1000A6E0804DAA4210D007D97F4DAA420CD03E
:100F200005F58035AA4208D013E0A5F58015AA4240
:100F300003D005F57025AA4207D18A68002A58D047
:100F4000012A51D04361082403E0A5F58015AA4287
:100F5000F3D0BEF1FF0F4ED80646BEF1FF0F4CD8BE
:100F60004FEA8C0233680F25954023EA050304FA03
:100F700002F2134333604B6813F0805F6ED0674B0F
:100F80009A6942F001029A619B6903F0010301939F
:100F9000019B4FEA9C02951C614B53F825600CF0B5
:100FA00003039D000F23AB4026EA03065D4B9842E6
:100FB00029D003F58063984200F08E8003F58063AA
:100FC000984200F08B8003F58063984219D0042387
:100FD0001AE0CC68BDE7CC680434BAE7CC680834C2
:100FE000B7E7CC680C34B4E703610824B1E7002408
:100FF000AFE70424ADE7061DAFE7ACF108029200AD
:10100000B0E7032300E00023AB4033430232444DFA
:1010100045F822304B6813F4801F61D0424A936830
:1010200043EA0E0393604B6813F4001F5ED03E4A00
:10103000D36843EA0E03D3604B6813F4003F5BD0E0
:10104000394A536843EA0E0353604B6813F4803FF8
:1010500058D0354A136843EA0E0313600CF1010CB3
:101060000A6832FA0CF353D0012303FA0CF302EAB4
:10107000030E33EA0202F1D14A68122A3FF649AF61
:10108000122A3FF666AF01A555F822F03B0F000883
:10109000D30F0008DD0F0008EF0F0008530F000802
:1010A000530F0008530F0008530F0008530F000898
:1010B000530F0008530F0008530F0008530F000888
:1010C000530F0008530F0008530F0008530F000878
:1010D000D70F0008E30F0008012395E7022393E7E9
:1010E000114A936823EA0E0393609CE70E4AD36883
:1010F00023EA0E03D3609FE70B4A536823EA0E03EB
:101100005360A2E7084A136823EA0E031360A5E7B9
:1011100002B070BD0000221000003110001002402B
:1011200000000140000801400004014003685A69C2
:1011300012F4806F01D1002070476FF480625A6111
:1011400000230363202280F83D2080F83E30026CAB
:1011500042F00402026480F83C30012070472DE91F
:10116000F04106460C46174698463BE0FFF754FE12
:10117000069BC01A404502D8B8F1000F32D1012DAC
:1011800018D033689B6924EA03039BB2B3FA83F354
:101190005B099F4226D100233363202286F83D203D
:1011A00086F83E30326C42F02002326486F83C30E1
:1011B000012027E033685B6924EA03039BB2B3FA9A
:1011C00083F35B09E5E733685B6924EA030C1FFAE4
:1011D0008CFCBCFA8CFC4FEA5C1C674511D1B8F161
:1011E000FF3FC3D1C4F30745012DECD033689B69A1
:1011F00024EA030C1FFA8CFCBCFA8CFC4FEA5C1C42
:10120000EBE70020BDE8F0812DE9F84305460E46E6
:101210009046994653E01A6842F400721A602B68AF
:101220006FF480625A6100232B63202285F83D20F1
:1012300085F83E302A6C42F004022A6485F83C307E
:1012400001204AE0FFF7E8FDA0EB0900404502D885
:10125000B8F1000F33D1012F17D02B689B6926EA14
:1012600003039BB2003B18BF012343B300232B634E
:10127000202285F83D2085F83E302A6C42F020027D
:101280002A6485F83C30012027E02B685B6926EA58
:1012900003039BB2003B18BF0123E6E72B689C6960
:1012A00026EA0404A4B2003C18BF0124A4B12B68B0
:1012B0005A6912F4806FAED1B8F1FF3FC2D1C6F3C4
:1012C0000747012FEAD12B685C6926EA0404A4B21F
:1012D000003C18BF0124E9E70020BDE8F88370B5A1
:1012E00004460D46164623685B6913F0800F21D132
:1012F0002046FFF71BFFF8B9B5F1FF3FF3D0FFF72A
:101300008BFD801BA84201D8002DECD123685B69BE
:1013100013F0800FE7D100232363202284F83D20BF
:1013200084F83E30226C42F02002226484F83C3083
:10133000012000E0002070BD0120FCE72DE9F04312
:1013400085B004460D4691461F46DDF830800D9E5F
:101350000368196841F480711960009643460022C1
:101360004FF00111FFF7FBFE60B9236805F0FE05A1
:101370001D613346424626492046FFF745FF68B1C6
:10138000012008E023681B6813F4807F02D04FF42B
:1013900000732364032005B0BDE8F08300230393AA
:1013A00023685A6903929B690393039B3246414623
:1013B0002046FFF794FF30B9012F0FD123685FFA61
:1013C00089F61E61E7E7236C042B01D00120E2E7D8
:1013D0002268136843F400731360F7E723684FEA49
:1013E00019221A61324641462046FFF778FF20B99C
:1013F00023685FFA89F61E61CDE7236C042B01D0C8
:101400000120C8E72268136843F400731360F7E70C
:10141000020001002DE9F04784B004460D4616464F
:1014200099460C9FDDF834800268136843F48063AA
:1014300013600368196841F480711960CDF8008069
:101440003B4600224FF00111FFF789FE70B95FFAA9
:1014500085FA236805F0FE051D6143463A46414979
:101460002046FFF7D1FE68B1012008E023681B6821
:1014700013F4807F02D04FF400732364032004B080
:10148000BDE8F0870023039323685A6903929B69A0
:101490000393039B424639462046FFF720FF80B95D
:1014A000B9F1010F18D12368F6B21E6142463946E0
:1014B0002046FFF714FF68B3236C042B24D00120CF
:1014C000DDE7236C042B01D00120D8E722681368E4
:1014D00043F400731360F7E72368320A1A61424647
:1014E00039462046FFF7FBFE18B92368F6B21E61A5
:1014F000DCE7236C042B01D00120C0E722681368CD
:1015000043F400731360F7E72268136843F4007331
:101510001360D4E72268136843F480731360CDF836
:1015200000803B4600224FF001112046FFF717FED6
:1015300068B922684AF00103136143463A460949F3
:101540002046FFF761FE002899D0012097E7236825
:101550001B6813F4807F02D04FF4007323640320D0
:101560008DE700BF0200010070B504460D46164627
:1015700023685B6913F0040F21D12046FFF7D6FDE5
:10158000F8B9B5F1FF3FF3D0FFF746FC801BA84246
:1015900001D8002DECD123685B6913F0040FE7D16B
:1015A00000232363202284F83D2084F83E30226CFF
:1015B00042F02002226484F83C30012000E0002048
:1015C00070BD0120FCE770B504460D46164614E0D8
:1015D0006FF010025A6100232363202284F83D201B
:1015E00084F83E30226C226484F83C30012025E0EF
:1015F00023685B6913F0400F10D02368586910F01E
:10160000400F1AD1586910F0100FE1D1FFF704FC18
:10161000801BA842ECD8002DEFD1E9E7002323631B
:10162000202284F83D2084F83E30226C42F02002D3
:10163000226484F83C30012000E0002070BD0000EE
:10164000002800F0CC8070B5044690F83D30002BA7
:1016500077D0242384F83D302268136823F00103F7
:1016600013602268136843F4004313602268136810
:1016700023F40043136000F01BFE62685A4B9A4249
:1016800064D85A4B98428CBF00230123002B40F0B2
:10169000A8805749A1FB00318B0C25686A6822F0AD
:1016A0003F0242EA91426A6021680A6A22F03F02E0
:1016B00066684D4DAE424FD8013313430B6221682B
:1016C000CA6922F44F4222F0FF026668464B9E42EE
:1016D0004CD8431E7600B3FBF6F3013340F6FC70A2
:1016E000034278D0C3F30B031343CB6121680B682B
:1016F00023F0C003E269206A024313430B602168B0
:101700008B6823F4034323F0FF032269E06802435C
:1017100013438B602168CB6823F0FF036269A069E3
:1017200002431343CB602268136843F00103136044
:1017300000202064202384F83D30206384F83E009C
:1017400070BD80F83C30FFF7CDF982E7294B984215
:101750008CBF0023012399E74FF4967505FB03F333
:10176000254DA5FB03539B090133A6E7A368BBB92D
:10177000451E06EB460CB5FBFCF50135C5F30B0524
:10178000B5FA85F56D0945BBC3B9013806EB4603CB
:10179000B0FBF3F30133C3F30B0343F40043A3E7BC
:1017A000451E06EB860C0CEB8C0CB5FBFCF50135ED
:1017B000C5F30B05B5FA85F56D09E4E7013806EBCD
:1017C000860303EB8303B0FBF3F30133C3F30B0393
:1017D00043F4404388E7042386E7012384E701209C
:1017E00070470120ACE700BFA08601007F841E0087
:1017F00083DE1B43FF083D00D34D62102DE9F0430B
:1018000083B004460F46904699460C9EFFF704FBB2
:10181000054694F83D00C0B2202803D0022003B052
:10182000BDE8F0830095192301224B492046FFF7BC
:1018300096FC002840F0898094F83C30012B00F0A1
:101840008680012384F83C3023681A6812F0010F67
:1018500003D11A6842F001021A602268136823F467
:1018600000631360212384F83D30402384F83E3028
:10187000002323640A9B6362BDF82C306385638D6B
:101880002385364BE362019500964B464246394626
:101890002046FFF753FD00285BD1238D002B35D068
:1018A0002A4631462046FFF71AFD20BB626A2368AC
:1018B00012781A61626A531C6362218D013989B200
:1018C0002185638D9BB2013B9BB263852368586978
:1018D00010F0040FE1D00029DFD052781A61636A5A
:1018E00001336362238D013B2385638D9BB2013BF2
:1018F0009BB26385D1E7236C042B01D001208EE7D6
:101900002268136843F400731360F7E72A463146F0
:101910002046FFF729FE50B1236C042B01D0012093
:101920007DE72268136843F400731360F7E72268C9
:10193000136843F400731360202384F83D300023C0
:1019400084F83E3084F83C3069E7022067E70220E3
:1019500065E7012063E700BF020010000000FFFF01
:101960002DE9F04389B004460F4690469946129EF1
:1019700000230793FFF750FA054694F83D00C0B2E4
:10198000202804D00227384609B0BDE8F08300952E
:101990001923012281492046FFF7E1FB002840F08E
:1019A000728194F83C30012B00F06F81012384F8A0
:1019B0003C3023681A6812F0010F03D11A6842F014
:1019C00001021A602268136823F400631360222363
:1019D00084F83D30402384F83E3000232364109B7C
:1019E0006362BDF844306385638D23856C4BE3628D
:1019F000019500964B46424639462046FFF70AFDC0
:101A00000746002840F04381238D5BB90393236888
:101A10005A6903929A690392039A1A6842F400720F
:101A20001A60EDE0012B0FD0022B21D02268136841
:101A300043F4806313600023069323685A69069277
:101A40009B690693069BDBE02268136823F480639E
:101A5000136072B60023049323685A6904929A694A
:101A60000492049A1A6842F400721A6062B6C7E0DF
:101A70002268136843F40063136072B60023059371
:101A800023685A6905929A690592059A1A6822F4A0
:101A900080621A6062B6B3E02A4631462046FFF7FC
:101AA00092FD002840F0F58023681A69636A1A7075
:101AB000636A01336362238D013B2385638D9BB28F
:101AC000013B9BB263859BE000953346002235497C
:101AD0002046FFF744FB002840F0DF8022681368AF
:101AE00023F48063136072B623681A69636A1A70FC
:101AF000636A01336362238D013B2385638D9BB24F
:101B0000013B9BB26385284B1B68DB08274AA2FB7D
:101B100003231B0A03EB8303C3EBC3030793079B56
:101B2000013B0793079B002B28D023685A6912F0CA
:101B3000040FF4D01A6842F400721A6023681A691C
:101B4000636A1A70636A01336362238D013B2385E4
:101B5000638D9BB2013B9BB2638562B623681A69B1
:101B6000636A1A70636A01336362238D013B2385C4
:101B7000638D9BB2013B9BB2638541E023632022CE
:101B800084F83D2084F83E30226C42F0200222642A
:101B900062B684F83C300127F5E600BF0200100071
:101BA0000000FFFF040001000000002089B5F814C8
:101BB0002A4631462046FFF706FD00286FD12368EC
:101BC0001A69636A1A70626A531C6362238D013B4F
:101BD0002385638D9BB2013B9BB263852368596962
:101BE00011F0040F0CD01B695370636A01336362F8
:101BF000238D013B2385638D9BB2013B9BB26385A3
:101C0000238D002B36D0032BD2D8012B3FF444AFC9
:101C1000022B7FF459AF009533460022214920461C
:101C2000FFF79DFA002836D172B62268136843F494
:101C30000073136023681A69636A1A70636A013358
:101C40006362238D013B2385638D9BB2013B9BB275
:101C5000638562B623681A69636A1A70636A01331E
:101C60006362238D013B2385638D9BB2013B9BB255
:101C70006385C5E7202384F83D30002384F83E3097
:101C800084F83C307FE602277DE602277BE60127C9
:101C900079E6012777E6012775E6012773E6012734
:101CA00071E600BF0400010082B0084B1B68084ABF
:101CB000A2FB03235B0A00FB03F3019300BF019B1C
:101CC0005A1E0192002BF9D102B07047000000208B
:101CD000D34D6210002800F0F18170B582B0044647
:101CE000036813F0010F2CD0994B5B6803F00C03D1
:101CF000042B1DD0964B5B6803F00C03082B12D00D
:101D00006368B3F5803F41D0002B55D103F1804388
:101D100003F504331A6822F480321A601A6822F438
:101D200080221A6037E08A4B5B6813F4803FE7D06B
:101D3000874B1B6813F4003F03D06368002B00F04F
:101D4000BF81236813F0020F75D0814B5B6813F0DD
:101D50000C0F5FD07E4B5B6803F00C03082B54D054
:101D60002369002B00F08A807A4B01221A60FFF76A
:101D700053F80546764B1B6813F0020F75D1FFF739
:101D80004BF8401B0228F5D903209EE1704A1368E6
:101D900043F480331360636843B3FFF73DF80546AF
:101DA0006B4B1B6813F4003FCBD1FFF735F8401B9A
:101DB0006428F5D9032088E1B3F5A02F09D0644B3E
:101DC0001A6822F480321A601A6822F480221A609B
:101DD000E1E703F18043A3F53C331A6842F4802223
:101DE0001A601A6842F480321A60D4E7FFF714F8D8
:101DF0000546574B1B6813F4003FA2D0FFF70CF8C1
:101E0000401B6428F5D903205FE1514B5B6813F454
:101E1000803FA5D14E4B1B6813F0020F03D02369FE
:101E2000012B40F04F814A4A136823F0F80361699F
:101E300043EAC1031360236813F0080F33D0A3698A
:101E4000002B5CD0434B0122C3F88024FEF7E4FF53
:101E500005463F4B5B6A13F0020F21D1FEF7DCFF12
:101E6000401B0228F5D903202FE1394A136823F0DB
:101E7000F803616943EAC1031360DCE7354B0022D4
:101E80001A60FEF7C9FF0546314B1B6813F0020FBD
:101E9000D1D0FEF7C1FF401B0228F5D9032014E181
:101EA0000120FFF701FF236813F0040F00F0968074
:101EB000274BDB6913F0805F34D1254BDA6942F0A0
:101EC0008052DA61DB6903F080530193019B0125A5
:101ED000214B1B6813F4807F26D0E368012B3DD093
:101EE000002B53D103F1804303F504331A6A22F027
:101EF00001021A621A6A22F004021A6233E0154BD8
:101F00000022C3F88024FEF787FF0546104B5B6A6A
:101F100013F0020FC7D0FEF77FFF401B0228F5D950
:101F20000320D2E00025D3E70B4A136843F4807303
:101F30001360FEF771FF0646074B1B6813F4807FA2
:101F4000CBD1FEF769FF801B6428F5D90320BCE0E4
:101F50000010024000004242007000405F4A136AD5
:101F600043F001031362E36833B3FEF755FF0646FF
:101F70005A4B1B6A13F0020F2FD1FEF74DFF801B47
:101F800041F288339842F3D903209EE0052B09D013
:101F9000524B1A6A22F001021A621A6A22F00402F3
:101FA0001A62E0E74D4B1A6A42F004021A621A6A9A
:101FB00042F001021A62D6E7FEF72EFF0646474BB3
:101FC0001B6A13F0020F08D0FEF726FF801B41F2B8
:101FD00088339842F3D9032077E0E5B9E369002B11
:101FE00072D03E4A526802F00C02082A56D0022BE8
:101FF00017D03B4B00221A66FEF70EFF0446374B04
:102000001B6813F0007F47D0FEF706FF001B022875
:10201000F5D9032059E0314AD36923F08053D361C5
:10202000DCE72F4B00221A66FEF7F6FE05462B4B27
:102030001B6813F0007F06D0FEF7EEFE401B02285F
:10204000F5D9032041E0236AB3F5803F1AD0234934
:102050004B6823F47413226A606A024313434B6093
:102060001F4B01221A66FEF7D7FE04461B4B1B6866
:1020700013F0007F0ED1FEF7CFFE001B0228F5D92A
:10208000032022E0154A536823F40033A1680B4370
:102090005360DCE7002018E0002016E0012B16D08A
:1020A0000E4B5B6803F48031226A914211D103F434
:1020B0007013626A93420ED1002006E0012070473F
:1020C000012002E0012000E0002002B070BD0120EC
:1020D000FBE70120F9E70120F7E700BF001002400D
:1020E000000042420F4B5B6803F00C02082A01D04B
:1020F0000D487047C3F383420C49885C13F4803F5A
:102100000BD0084B5B68C3F34043094AD35C064AD3
:1021100002FB00F0B0FBF3F07047064B03FB00F04E
:10212000704700BF0010024000127A002827000804
:102130003827000800093D00002800F0A08070B595
:102140000D460446524B1B6803F007038B420BD22B
:102150004F4A136823F007030B431360136803F01F
:1021600007038B4240F08D80236813F0020F17D0D5
:1021700013F0040F04D0474A536843F4E0635360FC
:10218000236813F0080F04D0424A536843F46053A5
:102190005360404A536823F0F003A1680B43536037
:1021A000236813F0010F31D06368012B20D0022B7C
:1021B00025D0384A126812F0020F64D035494A68B7
:1021C00022F0030213434B60FEF726FE0646314B16
:1021D0005B6803F00C036268B3EB820F16D0FEF766
:1021E0001BFE801B41F288339842F0D9032045E062
:1021F000284A126812F4003FE0D101203EE0254A4F
:10220000126812F0007FD9D1012037E0204B1B6803
:1022100003F00703AB420AD91D4A136823F00703F2
:102220002B431360136803F00703AB422DD12368DF
:1022300013F0040F06D0174A536823F4E063E168F3
:102240000B435360236813F0080F07D0114A5368FB
:1022500023F46053216943EAC1035360FFF742FF4F
:102260000C4B5B68C3F303130B4AD35CD8400B4B96
:1022700018600B4B1868FEF78BFD002070BD012025
:1022800070470120FAE70120F8E70120F6E700BFD8
:10229000002002400010024010270008000000202B
:1022A00008000020014B1868704700BF00000020A4
:1022B00008B5FFF7F7FF044B5B68C3F30223034A3B
:1022C000D35CD84008BD00BF0010024020270008A2
:1022D00008B5FFF7E7FF044B5B68C3F3C223034A6B
:1022E000D35CD84008BD00BF001002402027000882
:1022F00010B504460268136923F44053C1680B43C8
:10230000136183680269134342691A430168CB6809
:1023100023F4B05323F00C031343CB6002685369DA
:1023200023F4407381690B4353610268134B9A4253
:1023300020D0FFF7BDFF024602EB820202EB8202D1
:1023400063689B00B2FBF3F20D48A0FB0231490920
:10235000642303FB11231B013233A0FB03235B091E
:1023600003F0F00202EB011203F00F0321681344A3
:102370008B6010BDFFF7ACFF0246DDE7003801407F
:102380001F85EB512DE9F84305460F461646994641
:10239000DDF820802C68246837EA04030CBF4FF076
:1023A000010C4FF0000CB4452DD1B8F1FF3FF1D036
:1023B000B8F1000F05D0FEF72FFDA0EB0900404556
:1023C000E8D92A6802F10C0353E8003F23F4D073E4
:1023D0000C3242E800310029F3D12A6802F11403DB
:1023E00053E8003F23F00103143242E80031002992
:1023F000F3D1202385F8413085F84230002385F859
:102400004030032000E00020BDE8F88360B310B541
:10241000044690F8413013B3242384F841302268F5
:10242000D36823F40053D3602046FFF761FF22688E
:10243000136923F4904313612268536923F02A033C
:1024400053612268D36843F40053D3600020606472
:10245000202384F8413084F84230606310BD80F856
:102460004030FEF733FCD7E7012070472DE9F041FB
:1024700082B01E4690F84130DBB2202B4BD104468F
:102480000D46904600294AD00AB9012044E00023B5
:102490004364212380F84130FEF7BEFC0746A4F8D0
:1024A0002480A4F82680A368B3F5805F02D04FF0A3
:1024B00000080FE02369FBB14FF000080AE038F88C
:1024C000023B2268C3F308035360E28C92B2013AE4
:1024D00092B2E284E38C9BB28BB100963B46002221
:1024E00080212046FFF74EFFD8B9002DE7D015F820
:1024F000012B23685A60E8E7A8460025EAE7009622
:102500003B46002240212046FFF73CFF58B92023DC
:1025100084F8413000E0022002B0BDE8F0810120E3
:10252000FAE70320F8E70320F6E7000070B50D4E48
:102530000D4D761BB61006D0002455F8043B01342F
:102540009847A642F9D1094E094D00F0D5F8761BFF
:10255000B61006D0002455F8043B01349847A64233
:10256000F9D170BD4027000840270008482700081F
:1025700040270008830730B548D0541E002A3FD0BA
:102580000346CAB201E0013C3AD303F8012B9D0790
:10259000F9D1032C2DD9CDB245EA05250F2C45EAFA
:1025A000054536D9A4F1100222F00F0C03F1200EDC
:1025B000E6444FEA121C03F1100242E9045542E9D5
:1025C000025510327245F8D10CF1010214F00C0FD3
:1025D00003EB021204F00F0C13D0ACF1040323F050
:1025E00003030433134442F8045B9342FBD10CF021
:1025F00003042CB1CAB21C4403F8012B9C42FBD14A
:1026000030BD64461346002CF4D1F9E70346144666
:10261000BFE71A46A446E0E7024B13B1024800F0B8
:1026200005B8704700000000392600080023014665
:102630001A46184600F01AB838B5084B084D5B1B0F
:102640009C1007D0043B1D44013C55F804399847C1
:10265000002CF9D1BDE8384000F054B84C270008F0
:1026600048270008704700BF704700BF2DE9F047BA
:10267000DFF87CA00646DAF8000098460F4691463F
:10268000FFF7F0FF1B4B1B68D3F8484124B3656884
:102690001F2D26DC5EB96B1C0235DAF80000636082
:1026A00044F82570FFF7E0FF0020BDE8F087012324
:1026B00004EB8501C1F88890D4F88821AB401A4317
:1026C000022EC4F88821C1F80881E4D1D4F88C2105
:1026D0001343C4F88C31DEE703F5A674C3F8484110
:1026E000D5E7DAF80000FFF7BFFF4FF0FF30DCE777
:1026F000380400203C270008F8B500BFF8BC08BC2F
:102700009E467047F8B500BFF8BC08BC9E467047AF
:102710000000000000000000010203040607080991
:102720000000000001020304020304050607080973
:102730000A0B0C0D0E0F10100102000010000020FB
:0827400019260008350100080C
:042748001101000873
:10274C000024F40001000000100000000000000054
:10275C0000000000FC02002064030020CC030020D9
:10276C00000000000000000000000000000000005D
:10277C00000000000000000000000000000000004D
:10278C00000000000000000000000000000000003D
:10279C00000000000000000000000000000000002D
:1027AC00000000000000000000000000000000001D
:1027BC00000000000000000000000000000000000D
:1027CC0000000000000000000000000000000000FD
:1027DC0000000000000000000000000000000000ED
:1027EC0000000000000000000000000000000000DD
:1027FC0000000000000000000100000000000000CC
:10280C000E33CDAB34126DE6ECDE05000B00000090
:10281C0000000000000000000000000000000000AC
:10282C00000000000000000000000000000000009C
:10283C00000000000000000000000000000000008C
:10284C00000000000000000000000000000000007C
:0C2B7C0000000000000000005C050020CC
:0400000508000D459D
:00000001FF
