:020000040800F2
:1000000000000220755E0008B1100008B31000085F
:10001000B5100008B7100008B91000080000000073
:10002000000000000000000000000000B1330008E4
:10003000BB1000080000000051340008BD1000088B
:10004000C55E0008C55E0008C55E0008C55E000804
:10005000C55E0008C55E0008C55E0008C55E0008F4
:10006000C55E0008C55E0008D3100008C55E000824
:10007000DD100008C55E0008C55E0008C55E00080A
:10008000C55E0008C55E0008C55E0008C55E0008C4
:10009000ED100008C55E0008C55E0008FD100008F0
:1000A000C55E0008C55E0008C55E0008C55E0008A4
:1000B000C55E0008C55E0008C55E0008C55E000894
:1000C000C55E0008C55E0008C55E0008C55E000884
:1000D000C55E000809110008C55E00081911000876
:1000E000C55E0008C55E0008C55E0008C55E000864
:1000F000C55E0008C55E0008C55E0008C55E000854
:10010000C55E0008C55E0008C55E0008C55E000843
:10011000C55E0008C55E0008C55E0008C55E000833
:10012000C55E000801120008C55E0008C55E000833
:10013000C55E0008C55E0008C55E0008C55E000813
:1001400011120008C55E0008C55E0008C55E000803
:100150002112000831120008C55E0008C55E0008C3
:10016000C55E0008C55E0008C55E0008C55E0008E3
:10017000C55E0008C55E0008C55E000800000000FE
:08018000C55E0008C55E000821
:1001900010B5054C237833B9044B13B10448AFF3C1
:1001A00000800123237010BD4404002000000000E3
:1001B000646D000808B5034B1BB103490348AFF356
:1001C000008008BD0000000048040020646D0008A5
:1001D00081F0004102E000BF83F0004330B54FEAF8
:1001E00041044FEA430594EA050F08BF90EA020F65
:1001F0001FBF54EA000C55EA020C7FEA645C7FEAF8
:10020000655C00F0E2804FEA5454D4EB5555B8BF1A
:100210006D420CDD2C4480EA020281EA030382EA8B
:10022000000083EA010180EA020281EA0303362D1D
:1002300088BF30BD11F0004F4FEA01314FF4801CF0
:100240004CEA113102D0404261EB410113F0004F02
:100250004FEA03334CEA133302D0524263EB4303B9
:1002600094EA050F00F0A780A4F10104D5F1200E57
:100270000DDB02FA0EFC22FA05F2801841F10001B2
:1002800003FA0EF2801843FA05F359410EE0A5F186
:1002900020050EF1200E012A03FA0EFC28BF4CF0B7
:1002A000020C43FA05F3C01851EBE37101F000456D
:1002B00007D54FF0000EDCF1000C7EEB00006EEB7A
:1002C0000101B1F5801F1BD3B1F5001F0CD3490804
:1002D0005FEA30004FEA3C0C04F101044FEA44525B
:1002E00012F5800F80F09A80BCF1004F08BF5FEAE2
:1002F000500C50F1000041EB045141EA050130BDC2
:100300005FEA4C0C404141EB0101013C28BFB1F5D3
:10031000801FE9D291F0000F04BF01460020B1FA1E
:1003200081F308BF2033A3F10B03B3F120020CDAF1
:100330000C3208DD02F1140CC2F10C0201FA0CF0CF
:1003400021FA02F10CE002F11402D8BFC2F1200C34
:1003500001FA02F120FA0CFCDCBF41EA0C019040EA
:10036000E41AA2BF01EB0451294330BD6FEA040433
:100370001F3C1CDA0C340EDC04F11404C4F120021E
:1003800020FA04F001FA02F340EA030021FA04F330
:1003900045EA030130BDC4F10C04C4F1200220FA87
:1003A00002F001FA04F340EA0300294630BD21FAC5
:1003B00004F0294630BD94F0000F83F4801306BF8B
:1003C00081F480110134013D4EE77FEA645C18BF7F
:1003D0007FEA655C29D094EA050F08BF90EA020F16
:1003E00005D054EA000C04BF1946104630BD91EA0E
:1003F000030F1EBF0021002030BD5FEA545C05D111
:100400004000494128BF41F0004130BD14F580044F
:100410003CBF01F5801130BD01F0004545F0FE41C3
:1004200041F470014FF0000030BD7FEA645C1ABFF8
:10043000194610467FEA655C1CBF0B46024650EA2F
:10044000013406BF52EA033591EA030F41F400215B
:1004500030BD00BF90F0000F04BF0021704730B5E1
:100460004FF4806404F132044FF000054FF00001B6
:1004700050E700BF90F0000F04BF0021704730B577
:100480004FF4806404F1320410F0004548BF40424C
:100490004FF000013EE700BF42004FEAE2014FEAA1
:1004A00031014FEA02701FBF12F07F4393F07F4F7C
:1004B00081F06051704732F07F4208BF704793F07F
:1004C0007F4F04BF41F40021704730B54FF4607492
:1004D00001F0004521F000411CE700BF50EA010295
:1004E00008BF704730B54FF000050AE050EA01023E
:1004F00008BF704730B511F0004502D5404261EBAE
:1005000041014FF4806404F132045FEA915C3FF4EE
:10051000D8AE4FF003025FEADC0C18BF03325FEA8B
:10052000DC0C18BF033202EBDC02C2F1200300FA3C
:1005300003FC20FA02F001FA03FE40EA0E0021FA61
:1005400002F11444BDE600BF4FF0FF3C06E000BFDF
:100550004FF0010C02E000BF4FF0010C4DF804CD4C
:100560004FEA410C7FEA6C5C4FEA430C18BF7FEA0C
:100570006C5C1BD001B050EA410C0CBF52EA430C3A
:1005800091EA030F02BF90EA020F0020704710F1BA
:10059000000F91EA030F58BF994208BF90422CBF49
:1005A000D8176FEAE37040F0010070474FEA410C42
:1005B0007FEA6C5C02D150EA013C07D14FEA430C60
:1005C0007FEA6C5CD6D152EA033CD3D05DF8040BD1
:1005D000704700BF8446104662468C461946634603
:1005E00000E000BF01B5FFF7B7FF002848BF10F1DA
:1005F000000F01BD4DF808EDFFF7F4FF0CBF01201F
:1006000000205DF808FB00BF4DF808EDFFF7EAFF9A
:1006100034BF012000205DF808FB00BF4DF808ED55
:10062000FFF7E0FF94BF012000205DF808FB00BF4A
:100630004DF808EDFFF7CEFF94BF012000205DF8D4
:1006400008FB00BF4DF808EDFFF7C4FF34BF0120E1
:1006500000205DF808FB00BF53B94AB9002908BF64
:1006600000281CBF4FF0FF314FF0FF3000F074B98D
:10067000ADF1080C6DE904CE00F006F8DDF804E0F9
:10068000DDE9022304B070472DE9F047089D0446D8
:100690008E46002B4DD18A42944669D9B2FA82F235
:1006A00052B101FA02F3C2F1200120FA01F10CFA71
:1006B00002FC41EA030E94404FEA1C48210CBEFBA9
:1006C000F8F61FFA8CF708FB16E341EA034306FB32
:1006D00007F199420AD91CEB030306F1FF3080F0C1
:1006E0001F81994240F21C81023E63445B1AA4B20E
:1006F000B3FBF8F008FB103344EA034400FB07F7B0
:10070000A7420AD91CEB040400F1FF3380F00A81F0
:10071000A74240F207816444023840EA0640E41BE5
:1007200000261DB1D4400023C5E900433146BDE891
:10073000F0878B4209D9002D00F0EF800026C5E933
:10074000000130463146BDE8F087B3FA83F6002E4B
:100750004AD18B4202D3824200F2F980841A61EBC3
:10076000030301209E46002DE0D0C5E9004EDDE7E1
:1007700002B9FFDEB2FA82F2002A40F09280A1EBC9
:100780000C014FEA1C471FFA8CFE0126200CB1FB1E
:10079000F7F307FB131140EA01410EFB03F0884217
:1007A00008D91CEB010103F1FF3802D2884200F2A4
:1007B000CB804346091AA4B2B1FBF7F007FB101136
:1007C00044EA01440EFB00FEA64508D91CEB0404D4
:1007D00000F1FF3102D2A64500F2BB800846A4EB2F
:1007E0000E0440EA03409CE7C6F12007B34022FA1A
:1007F00007FC4CEA030C20FA07F401FA06F31C4349
:10080000F9404FEA1C4900FA06F3B1FBF9F8200C55
:100810001FFA8CFE09FB181140EA014108FB0EF09B
:10082000884202FA06F20BD91CEB010108F1FF3AEB
:1008300080F08880884240F28580A8F102086144F7
:10084000091AA4B2B1FBF9F009FB101144EA014105
:1008500000FB0EFE8E4508D91CEB010100F1FF34B0
:100860006CD28E456AD90238614440EA0840A0FB48
:100870000294A1EB0E01A142C846A64656D353D01E
:100880005DB1B3EB080261EB0E0101FA07F722FA42
:1008900006F3F1401F43C5E9007100263146BDE86B
:1008A000F087C2F12003D8400CFA02FC21FA03F3CE
:1008B000914001434FEA1C471FFA8CFEB3FBF7F04F
:1008C00007FB10360B0C43EA064300FB0EF69E4274
:1008D00004FA02F408D91CEB030300F1FF382FD20D
:1008E0009E422DD9023863449B1B89B2B3FBF7F6B5
:1008F00007FB163341EA034106FB0EF38B4208D98E
:100900001CEB010106F1FF3816D28B4214D9023ECE
:100910006144C91A46EA004638E72E46284605E7EC
:100920000646E3E61846F8E64B45A9D2B9EB0208BD
:1009300064EB0C0E0138A3E74646EAE7204694E74D
:100940004046D1E7D0467BE7023B614432E7304680
:1009500009E76444023842E7704700BF08B50D4814
:100960000D4B03600323436000238360C3604FF497
:10097000102202614FF400124261037643768376BF
:10098000C3760377437700F04BFE00B908BD00F053
:100990003FFAFBE7640400200064004008B50D48FE
:1009A0000D4B03600323436000238360C3604FF457
:1009B000102202614FF4001242610376437683767F
:1009C000C3760377437700F02BFE00B908BD00F033
:1009D0001FFAFBE78C0400200068004010B58AB0C5
:1009E00000230593069307930893099303683D4AF0
:1009F000934204D03C4A934234D00AB010BD3B4AE3
:100A0000136801331360012B1FD000240194384B6D
:100A10001A6B42F008021A631B6B03F00803019380
:100A2000019B03230593022206920893092309934D
:100A300005A9304801F052FC22460521142001F09E
:100A4000D7F9142001F00CFAD7E700230093284BC4
:100A50001A6C42F000721A641B6C03F0007300936E
:100A6000009BD2E700230293214B1A6C42F0806274
:100A70001A641B6C03F080630293029B1B4A136889
:100A800001331360012B20D000240494184B1A6BFF
:100A900042F002021A631B6B03F002030493049BEF
:100AA00060230593022306930323089309230993E4
:100AB00005A9114801F012FC22460521402001F051
:100AC00097F9402001F0CCF997E700230393084BF6
:100AD0001A6C42F000721A641B6C03F000730393EB
:100AE000039BD1E7006400400068004060040020E0
:100AF00000380240000C02400004024010B582B0F1
:100B000000240094224B1A6B42F480021A631A6B81
:100B100002F480020092009A01941A6B42F40012CF
:100B20001A631B6B03F400130193019B22460521FA
:100B30000C2001F05DF90C2001F092F9224605210C
:100B4000392001F055F9392001F08AF922460521B2
:100B50003A2001F04DF93A2001F082F922460521B0
:100B60003B2001F045F93B2001F07AF922460521AE
:100B7000442001F03DF9442001F072F9224605219C
:100B8000452001F035F9452001F06AF902B010BDA9
:100B90000038024008B5012002F05CFBFBE708B515
:100BA000012002F057FBFBE708B5012002F052FBE1
:100BB000FBE70000034B0360034B0B6080231360D3
:100BC000704700BFC8060020C804002010B5A4B0BC
:100BD0002D4C0DF1740CA646BEE80F00ACE80F00DA
:100BE0009EE807008CE8070000211DA802F0FDFA2E
:100BF000264B18600DF1580C04F11C0EBEE80F00D6
:100C0000ACE80F009EE807008CE80700002116A85A
:100C100002F0EBFA1E4B18600DF13C0C04F1380E9B
:100C2000BEE80F00ACE80F009EE807008CE8070064
:100C300000210FA802F0D9FA164B18600DF1200C14
:100C400004F1540EBEE80F00ACE80F009EE8070068
:100C50008CE80700002108A802F0C7FA0E4B1860C4
:100C60000DF1040E04F1700CBCE80F00AEE80F00AB
:100C70009CE807008EE80700002101A802F0B5FA01
:100C8000064B186024B010BD7C6D0008B404002031
:100C9000BC040020C4040020B8040020C0040020CC
:100CA0002DE9F0438DB000240794089409940A9428
:100CB0000B940194514B1A6B42F002021A631A6BA7
:100CC00002F002020192019A02941A6B42F0400271
:100CD0001A631A6B02F040020292029A03941A6B92
:100CE00042F001021A631A6B02F001020392039AA6
:100CF00004941A6B42F008021A631A6B02F008029D
:100D00000492049A05941A6B42F004021A631A6B57
:100D100002F004020592059A06941A6B42F08002D2
:100D20001A631B6B03F080030693069B344F224625
:100D30004FF4E051384601F0C3FBDFF8CC900122BC
:100D40001021484601F0BCFB2E4E22464FF4805144
:100D5000304601F0B5FB01221146304601F0B0FBF0
:100D60004FF4E05307930125089509950A9407A9C4
:100D7000384601F0B3FA0723079308940994DFF883
:100D80008C8007A9404601F0A9FA10230793089523
:100D9000099502270A9707A9484601F09FFA3023D0
:100DA00007934FF404130893099507A9404601F0EF
:100DB00095FA4FF480530793089509950A9407A96B
:100DC000304601F08BFA0795089509950A9707A90F
:100DD000304601F083FA224605210A2001F008F886
:100DE0000A2001F03DF822460521172001F000F805
:100DF000172001F035F80DB0BDE8F083003802404F
:100E0000001C0240000402400000024000080240B2
:100E100072B6FEE700B595B03022002108A805F0B3
:100E200077F80023039304930593069307930193A4
:100E3000204A116C41F080511164126C02F0805212
:100E40000192019A02931C4B1A6842F480421A6084
:100E50001B6803F480430293029B012308934FF421
:100E60008033099302230E934FF480020F920622DF
:100E70001092A822119212930723139308A801F04D
:100E800035FB98B90F2303930223049300230593A2
:100E90004FF4A05306934FF480530793052103A802
:100EA00001F072FD20B915B05DF804FBFFF7B0FF4B
:100EB000FFF7AEFF003802400070004008B500F0B8
:100EC00083FBFFF7A7FFFFF7EBFEFFF717FE00F02E
:100ED00017F800F0BFF9FFF741FDFFF75FFD00F0E5
:100EE000D3F900F0EFF9A82003F042FA03F014F967
:100EF00003F0CAFAFFF76AFE02F068F9FEE70000A5
:100F000008B50F480F4B03604FF482734360002312
:100F10008360C36002220261012242614FF40072C9
:100F200082613822C2610362436283620A23C36220
:100F300001F000FE00B908BDFFF76AFFFBE700BF44
:100F4000DC070020003001402DE9F04188B000238B
:100F50000393049305930693079302683C4B9A42CC
:100F600002D008B0BDE8F08104460025009503F5E5
:100F700084335A6C42F480525A645A6C02F48052A0
:100F80000092009A01951A6B42F002021A631A6BE2
:100F900002F002020192019A02951A6B42F00102DC
:100FA0001A631B6B03F001030293029B1823039344
:100FB0004FF00208CDF81080032706970526079604
:100FC00003A9244801F08AF980230393CDF8108007
:100FD00005950697079603A91F4801F07FF91F485A
:100FE0001F4B03604FF0C06343608560C5604FF4E2
:100FF0008063036145618561C5614FF440330362DD
:10100000456200F0B9FFE8B9144BE3649C631548EE
:10101000154B03604FF0C06343604023836000239F
:10102000C3604FF48062026143618361C3614FF426
:1010300000320262436200F09FFF30B9094BA364A3
:101040009C638EE7FFF7E4FEDEE7FFF7E1FEF5E7DE
:101050000030014000040240000002401C07002054
:10106000406402407C0700205864024000B583B011
:10107000002200920D4B596C41F480415964596C27
:1010800001F48041009100990192196C41F0805166
:1010900019641B6C03F080530193019B0F216FF0C7
:1010A000010000F0A5FE03B05DF804FB003802402B
:1010B000FEE7FEE7FEE7FEE7FEE7704708B500F053
:1010C0009DFA03F019F8012800D108BD02F0F2F9E9
:1010D000FBE708B5102001F0FBF908BD08B5024890
:1010E00001F00EF808BD00BF9808002008B50248BE
:1010F00000F047FD08BD00BF6404002008B52020B3
:1011000001F0E6F908BD000008B5024801F012FF41
:1011100008BD00BFB809002000B583B0304B1B6884
:101120001A6812F0200F0CD0002200921A68009268
:101130005B680093009B2A4801F0FCFE03B05DF859
:1011400004FB284A126812F0100FF4D0002201921A
:101150001A6801925B680193019B234B1B681A6814
:1011600012F4002F1DD11A6822F001021A601E48E5
:1011700002685368C3F124039BB21C490B802421ED
:101180005160116841F40021116001680A6842F061
:1011900001020A60122BCED11549164803F07EF9E0
:1011A000C9E71A6822F001021A600F49086843680B
:1011B000C3F124030D4A1380242343600E48836A3D
:1011C00023F40023836209680B6843F001030B607A
:1011D0001388122BAFD10949064803F05FF9AAE73B
:1011E000FC09002000480040980800203408002036
:1011F0003C840020248400200060024060840020A1
:1012000008B5024800F07CFF08BD00BFF8080020C8
:1012100008B5024800F0B5FC08BD00BF8C040020F2
:1012200008B5024800F06CFF08BD00BF3808002078
:1012300008B5024800F064FF08BD00BF580900204F
:10124000034AD2F8883043F47003C2F888307047FC
:1012500000ED00E008B50A480A4B03604FF4E133A3
:10126000436000238360C36003610C224261836199
:10127000C36101F0A5FD00B908BDFFF7C9FDFBE79B
:10128000B80900200010014008B50B480B4B036063
:101290000B4B436000238360C3604FF480620261A4
:1012A0000C2242618361C36101F08AFD00B908BD6F
:1012B000FFF7AEFDFBE700BFFC090020004800403F
:1012C000A086010008B50A480A4B03604FF4E133D9
:1012D000436000238360C36003610C224261836129
:1012E000C36101F06DFD00B908BDFFF791FDFBE79B
:1012F000400A0020001401402DE9F0418CB0044662
:1013000000230793089309930A930B9303688B4A6E
:10131000934209D08A4A934264D08A4A934200F0A9
:10132000A8800CB0BDE8F08100250095864B5A6C72
:1013300042F010025A645A6C02F010020092009AB5
:1013400001951A6B42F002021A631A6B02F0020254
:101350000192019A02951A6B42F001021A631B6B0B
:1013600003F001030293029B802307934FF00208CE
:10137000CDF8208003270A9707260B9607A9734804
:1013800000F0ACFF4FF400730793CDF8208009956F
:101390000A970B9607A96E4800F0A0FF6D486E4BA8
:1013A00003604FF0006343608560C5604FF4806365
:1013B000036145618561C5614FF440330362456255
:1013C00000F0DAFD58B9634BA3639C63002205214A
:1013D000252000F00DFD252000F042FDA1E7FFF7DC
:1013E00017FDF0E700250395574B1A6C42F4802255
:1013F0001A641A6C02F480220392039A04951A6B01
:1014000042F004021A631B6B03F004030493049B71
:101410004FF4406307930223089303230A9307239F
:101420000B9307A94D4800F059FF4D484D4B036001
:101430004FF0006343608560C5604FF480630361D3
:1014400045618561C5614FF400330362456200F078
:1014500093FD58B9424BA3639C63002205212720CA
:1014600000F0C6FC272000F0FBFC5AE7FFF7D0FC99
:10147000F0E700250595344B5A6C42F020025A647F
:101480005A6C02F020020592059A06951A6B42F0FA
:1014900040021A631B6B03F040030693069B4FF454
:1014A000844307930223089303230A9308230B938F
:1014B00007A92D4800F012FF2C482D4B03604FF078
:1014C000206343608560C5604FF4806303614561BC
:1014D0008561C5614FF400330362456200F04CFD45
:1014E00028BB224BA3639C632248234B03604FF02D
:1014F00020634360402383600023C3604FF4806215
:10150000026143618361C3614FF4803202624362CE
:1015100000F032FD70B9174B63639C630022052114
:10152000472000F065FC472000F09AFCF9E6FFF741
:101530006FFCD6E7FFF76CFCEDE700BF0010014041
:1015400000480040001401400038024000040240FE
:101550000000024038080020886402400008024071
:10156000980800202860024000180240F808002077
:101570002864024058090020A064024010B50446C7
:101580000E4B18784FF47A73B3FBF0F30C4A1068E3
:10159000B0FBF3F000F072FC68B90F2C01D9012008
:1015A0000AE0002221464FF0FF3000F021FC054BFD
:1015B0001C60002000E0012010BD00BF04000020DE
:1015C000000000200800002008B50B4B1A6842F408
:1015D00000721A601A6842F480621A601A6842F453
:1015E00080721A60032000F0F1FB0F20FFF7C6FFA6
:1015F000FFF73CFD002008BD003C0240034A116893
:10160000034B1B780B441360704700BF840A002013
:1016100004000020014B1868704700BF840A0020B6
:10162000002800F0A18038B5044690F82030D3B1EE
:101630002268136843F001031360FFF7EBFF0546D0
:1016400023685A6812F0010F10D1FFF7E3FF401B27
:101650000A28F5D9636A43F400336362052384F8EA
:101660002030012038BDFFF7B9F9E1E71A6822F010
:1016700002021A60FFF7CEFF054623685A6812F08F
:10168000020F0DD0FFF7C6FF401B0A28F5D9636A89
:1016900043F400336362052384F820300120E1E73E
:1016A000227E012A3DD01A6822F080021A60637EF1
:1016B000012B3BD02268136823F040031360A37E04
:1016C000012B39D02268136823F020031360E37ED6
:1016D000012B37D02268136843F010031360237F77
:1016E000012B35D02268136823F008031360637F51
:1016F000012B33D02268136823F004031360A3681E
:10170000E268134322691343626913436268013A32
:1017100021681343CB6100206062012384F82030EC
:10172000A0E71A6842F080021A60C0E722681368D6
:1017300043F040031360C2E72268136843F02003BC
:101740001360C4E72268136823F010031360C6E730
:101750002268136843F008031360C8E7226813681F
:1017600043F004031360CAE70120704790F820306B
:10177000013BDBB2012B05D9436A43F4802343626A
:101780000120704730B5464BD3F8002242F00102E9
:10179000C3F80022D3F8002222F47C52C3F80022BE
:1017A000D3F80022486A42EA0022C3F800224A69BC
:1017B00002F01F02012000FA02F2D3F81C026FEAC5
:1017C000020C20EA0200C3F81C02CB69C3B9344BF7
:1017D000D3F80C020CEA0000C3F80C028C884869AC
:1017E000CD6844EA0544483043F830408C680888A6
:1017F00040EA04404C6904F1480E03EBCE03586004
:10180000CB69012B1ED08B69002B33D12448D0F833
:1018100004320CEA0303C0F804320B698BBB204886
:10182000D0F814320CEA0303C0F814320B6A012B0F
:101830002ED01B4AD2F8003223F00103C2F8003246
:10184000002030BD164BD3F80C021043C3F80C0235
:101850008C8848690D6844EA0544483043F83040B4
:1018600088894C698D6840EA0540483403EBC4031D
:101870005860C8E70A48D0F804321343C0F804326D
:10188000CBE70748D0F814321343C0F81432CDE741
:101890000349D1F81C321A43C1F81C22C9E700BF22
:1018A0000064004070B5044690F82050EDB2012D60
:1018B00006D0436A43F4002343620125284670BDE5
:1018C000022380F820300268136823F001031360BC
:1018D000FFF7A0FE064623685B6813F0010F0CD0EB
:1018E000FFF798FE831B0A2BF5D9636A43F4003394
:1018F0006362052384F82030E0E700256562DDE7B8
:1019000030B590F820C00468A4680CF1FF3C5FFA81
:101910008CFCBCF1010F6BD814F0E05F62D0C4F313
:10192000016CBCF1020F05D9436A43F40003436222
:10193000012062E0012404FA0CF41C608B68002B87
:101940003DD10D68CB68046843EA45550CF1180396
:101950001B01E55003680C690CF1180E03EB0E1324
:101960005C600B7D012B35D0D17993791B0443EA60
:101970000163517943EA012314790168234301EBA0
:101980000C11C1F88C31D17893781B0443EA0163C0
:10199000517843EA0123117802680B4302EB0C12E1
:1019A000C2F8883102680CF1180C4FEA0C1C52F88E
:1019B0000C3043F0010342F80C3000201DE04C686D
:1019C00043EAC403CC6823430CF1180424010568DE
:1019D0002B51BFE7036803EB0E13596841F4807184
:1019E0005960C1E7436A43F400134362012004E0F5
:1019F000436A43F480234362012030BD90F820C045
:101A00000CF1FF3C5FFA8CFCBCF1010F00F29580F9
:101A100030B451B90468E46814F0030F10D1436A7C
:101A200043F400134362012077E00468246914F052
:101A3000030F05D1436A43F40013436201206CE0B5
:101A400001F11B04240105682C5904F0040494607E
:101A5000002C64D101F11B04240105682C59640D8C
:101A60001460046801F11B0C4FEA0C1C54F80C4084
:101A700004F00204D46004686444646804F00F0451
:101A80001461046864446468C4F3072494610468BE
:101A900064446468240C5461026802EB0112D2F8B9
:101AA000B8211A70026802EB0112D2F8B821C2F311
:101AB00007225A70026802EB0112D2F8B821C2F371
:101AC00007429A70026802EB0112D2F8B821120E96
:101AD000DA70026802EB0112D2F8BC211A710268B6
:101AE00002EB0112D2F8BC21C2F307225A7102683C
:101AF00002EB0112D2F8BC21C2F307429A710268CC
:101B000002EB0112D2F8BC21120EDA7179B9026827
:101B1000D36843F02003D360002030BC704701F14C
:101B20001B04240105682C59E408546099E70268F5
:101B3000136943F020031361EEE7436A43F4802303
:101B400043620120704790F82030013BDBB2012B4B
:101B500005D9436A43F48023436201207047026839
:101B600053691943516100207047704770477047AF
:101B700070477047704770477047704770477047AD
:101B800070472DE9F84F054603685C69D3F8048077
:101B90009F68D3F80CB0D3F810A0D3F8189014F0C5
:101BA00001063BD017F0010616D001229A6017F00B
:101BB000020F08D117F0040F0CD117F0080606D059
:101BC0004FF4805608E0FFF7D0FF002604E0FFF74F
:101BD000CFFF01E04FF4006617F4807F0DD02B6833
:101BE0004FF480729A6017F4007F40F0868017F4FB
:101BF000806F00F0868046F4005617F4803F0DD0C9
:101C00002B684FF480329A6017F4003F40F08380D5
:101C100017F4802F00F0838046F4004614F0080F7C
:101C200007D01BF0100F04D046F400762B6810226A
:101C3000DA6014F0040F02D01BF0080F79D114F011
:101C4000020F04D02B68DB6813F0030F78D114F077
:101C5000400F07D01AF0100F04D046F480662B68AE
:101C600010221A6114F0200F02D01AF0080F6BD165
:101C700014F0100F04D02B681B6913F0030F6AD106
:101C800014F4003F02D018F0100F68D114F4803F14
:101C900002D018F0080F69D114F4004F7AD018F070
:101CA000040F74D014F4807F04D019F0010F01D018
:101CB00046F0010614F4007F04D019F0020F01D0A1
:101CC00046F0020614F4806F04D019F0040F01D01E
:101CD00046F0040614F4006F59D019F0700956D07C
:101CE000B9F1400F65D058D8B9F1200F5ED0B9F1E5
:101CF000300F42D146F0200644E02846FFF736FF79
:101D00007BE717F4006F02D046F4804675E728465B
:101D1000FFF72FFF71E72846FFF729FF7EE717F44B
:101D2000002F02D046F4803678E72846FFF722FFDE
:101D300074E72B680822DA602846FFF71CFF7EE76D
:101D4000284602F05FFA82E72B6808221A612846CB
:101D5000FFF713FF8CE72846FFF70EFF90E72B688D
:101D600010225A602846FFF709FF8FE72B680822E8
:101D70005A602846FFF703FF8EE7B9F1100F01D133
:101D800046F008062A68936923F0700393612B6874
:101D900004225A609EB9BDE8F88FB9F1500F0BD0FC
:101DA000B9F1600FEED146F48076EBE746F010060D
:101DB000E8E746F04006E5E746F08006E2E76B6AB2
:101DC0001E436E622846FFF7DBFEE4E7074AD3684E
:101DD00023F4E0631B041B0C000200F4E0600343E7
:101DE00043F0BF6343F40033D360704700ED00E07D
:101DF00000B5194BDB68C3F30223C3F1070CBCF138
:101E0000040F28BF4FF0040C03F1040EBEF1060FBF
:101E100018D9033B4FF0FF3E0EFA0CFC21EA0C01EF
:101E200099400EFA03F322EA0303194300280BDB5F
:101E30000901C9B200F1604000F5614080F800136B
:101E40005DF804FB0023E5E700F00F000901C9B2CB
:101E5000024B1954F4E700BF00ED00E014ED00E080
:101E6000002807DB00F01F02400901239340024ACB
:101E700042F82030704700BF00E100E00138B0F1C7
:101E8000807F0BD24FF0E0235861054AF02182F8A1
:101E900023100020986107221A61704701207047C3
:101EA00000ED00E010B40368D9B210390C4AA2FB6F
:101EB000014212090B4CA25CC2655F2909D923F4C7
:101EC0007F7323F0030304338365806D5DF8044B57
:101ED000704723F47F7323F003038365F5E700BFA6
:101EE000ABAAAAAA706E0008836A826992B9012B14
:101EF0000AD0022B02D00BB100207047C36A13F046
:101F0000807F28D100207047C36AB3F1C07F24D0FE
:101F100000207047B2F5005F09D0022B25D9032BB2
:101F200025D1C36A13F0807F23D100207047032B93
:101F300003D8DFE803F01404140A00207047C36AD2
:101F400013F0807F0DD100207047C36AB3F1C07FCA
:101F500009D0002070470120704701207047012000
:101F60007047012070470120704701207047002012
:101F7000704701207047000070B50446FFF74AFB28
:101F8000002C5BD00546022384F83530002384F80A
:101F900034302268136823F00103136023681A6841
:101FA00012F0010F0AD0FFF735FB431B052BF5D9C3
:101FB00020236365032084F8350070BD1A6820482B
:101FC00010406168A2680A43E1680A4321690A4334
:101FD00061690A43A1690A43E1690A43216A0A4324
:101FE0000243616A04291ED01A602668756925F0CB
:101FF0000705636A1D43042B07D1A36A1D43E36AE7
:102000001BB12046FFF770FF90B975612046FFF7BE
:1020100049FFE26D3F239340836000206065012308
:1020200084F83530C9E7E16A206B01430A43DBE7F6
:1020300040236365012084F83500BEE70120BCE73A
:102040003F8010F070B50446866DFFF7E3FA94F810
:102050003530DBB2022B06D080236365002384F881
:102060003430012070BD05462268136823F0160342
:1020700013602268536923F080035361236CE3B13A
:102080002268136823F0080313602268136823F0A2
:102090000103136023681B6813F0010F11D0FFF7D1
:1020A000B9FA431B052BF5D920236365032084F877
:1020B0003500002384F83430D4E7A36C002BDFD143
:1020C000E3E7E26D3F239340B360012384F83530AA
:1020D000002084F83400C5E790F83530DBB2022BDD
:1020E00003D08023436501207047052380F83530F5
:1020F0000268136823F0010313600020704700009A
:10210000F0B583B0044600230193724B1D68724BF7
:10211000A3FB0535AD0A876D3E68C26D0823934069
:10212000334210D003681A6812F0040F0BD01A68FB
:1021300022F004021A60C26D08239340BB60436D15
:1021400043F001034365E26D01239340334209D01C
:102150002268526912F0800F04D0BB60636D43F0B7
:1021600002036365E26D04239340334209D0226881
:10217000126812F0020F04D0BB60636D43F00403D9
:102180006365E26D10239340334224D022681268C5
:1021900012F0080F1FD0BB6023681A6812F4802F5A
:1021A0000DD01B6813F4002F04D1236C9BB1204683
:1021B000984710E0A36C73B1204698470BE01A686B
:1021C00012F4807F03D11A6822F008021A60236C8F
:1021D0000BB120469847E26D20239340334255D0FF
:1021E0002268126812F0100F50D0BB6094F835309E
:1021F000DBB2052B0ED023681A6812F4802F33D07F
:102200001B6813F4002F2AD1636C002B3ED02046AC
:1022100098473BE02268136823F016031360226896
:10222000536923F080035361236CA3B122681368C0
:1022300023F008031360E26D3F239340BB6001234A
:1022400084F83530002384F83430236D002B3FD0E0
:10225000204698473CE0A36C002BE7D1EBE7E36B0B
:10226000A3B12046984711E01A6812F4807F09D183
:102270001A6822F010021A60012384F83530002316
:1022800084F83430E36B0BB120469847636DFBB1A3
:10229000636D13F0010F17D0052384F835302268E1
:1022A000136823F001031360019B01330193AB42D8
:1022B00004D823681B6813F0010FF5D1012384F8BB
:1022C0003530002384F83430E36C0BB12046984756
:1022D00003B0F0BD00000020B5814E1B00230F2B82
:1022E00000F2E48070B582B060E085685E0003248F
:1022F000B44025EA0405CC68B4402C4384604568AA
:1023000025EA02054C68C4F300129A402A43426051
:102310005AE0DC08083450F8246003F00702950006
:102320000F22AA4026EA020E0A69AA4042EA0E02D9
:1023300040F824205CE0072200E0002202FA0EF2BE
:102340002A4302345A4D45F824205A4A94686FEAC9
:102350000C0224EA0C054E6816F4801F01D04CEAEA
:102360000405544CA560E46802EA04054E6816F4BE
:10237000001F01D04CEA04054E4CE560646802EA97
:1023800004054E6816F4003F01D04CEA0405494CA0
:102390006560246822404D6815F4803F01D04CEA06
:1023A0000402444C226001330F2B7DD801229A4055
:1023B0000C6804EA020C32EA0404F4D14C6804F01C
:1023C0000304013C012C90D94A6802F00302032A5D
:1023D00009D0C4685D000322AA4024EA02048A6886
:1023E000AA402243C2604A6802F00302022A90D047
:1023F00004684FEA430E032202FA0EF224EA0204B2
:102400004A6802F0030202FA0EF2224302604A68AE
:1024100012F4403FC7D000220192274A546C44F482
:1024200080445464526C02F480420192019A9C08E8
:10243000A51C1F4A52F8255003F003024FEA820EF2
:102440000F2202FA0EF225EA02051C4A90423FF4DE
:1024500074AF02F5806290421AD002F58062904219
:1024600018D002F58062904216D002F58062904248
:1024700014D002F58062904212D002F58062904240
:1024800010D002F5806290423FF455AF082255E724
:10249000012253E7022251E703224FE704224DE7CE
:1024A00005224BE7062249E702B070BD704700BF26
:1024B00000380140003C014000380240000002406A
:1024C0000AB181617047090481617047704700005B
:1024D00008B5054B5B69034200D108BD024B58614A
:1024E000FFF7F4FFF9E700BF003C0140002800F0CF
:1024F000E08170B582B00446036813F0010F3BD051
:102500009F4B9B6803F00C03042B2CD09C4B9B68C7
:1025100003F00C03082B21D06368B3F5803F4FD044
:10252000B3F5A02F52D0964B1A6822F480321A606D
:102530001A6822F480221A606368002B50D0FFF7DB
:1025400069F805468E4B1B6813F4003F14D1FFF762
:1025500061F8401B6428F5D90320B1E1884B5B6822
:1025600013F4800FD8D0864B1B6813F4003F03D0C0
:102570006368002B00F09F81236813F0020F54D092
:102580007F4B9B6813F00C0F3ED07D4B9B6803F094
:102590000C03082B33D0E368002B68D0794B012261
:1025A0001A60FFF737F80546754B1B6813F0020FEA
:1025B00054D1FFF72FF8401B0228F5D903207FE103
:1025C0006F4A136843F480331360B5E76C4B1A68A5
:1025D00042F480221A601A6842F480321A60ABE733
:1025E000FFF718F80546664B1B6813F4003FC3D08D
:1025F000FFF710F8401B6428F5D9032060E1604B19
:102600005B6813F4800FC6D15D4B1B6813F0020F9B
:1026100003D0E368012B40F05081594A136823F03E
:10262000F803216943EAC1031360236813F0080F1C
:1026300042D063696BB3534B0122C3F8802EFEF77F
:10264000E9FF05464E4B5B6F13F0020F34D1FEF7E6
:10265000E1FF401B0228F5D9032031E1484A136805
:1026600023F0F803216943EAC1031360DDE7454B1A
:1026700000221A60FEF7CEFF0546414B1B6813F09F
:10268000020FD2D0FEF7C6FF401B0228F5D9032067
:1026900016E13C4B0022C3F8802EFEF7BBFF054637
:1026A000374B5B6F13F0020F06D0FEF7B3FF401BF2
:1026B0000228F5D9032003E1236813F0040F77D033
:1026C0002F4B1B6C13F0805F33D1002301932C4BF5
:1026D0001A6C42F080521A641B6C03F08053019311
:1026E000019B0125284B1B6813F4807F23D0A3682E
:1026F000012B34D0052B38D0214B1A6F22F0010268
:102700001A671A6F22F004021A67A368002B3DD0E3
:10271000FEF780FF06461A4B1B6F13F0020F46D1DF
:10272000FEF778FF801B41F288339842F3D90320EB
:10273000C6E00025D6E7144A136843F4807313609B
:10274000FEF768FF0646104B1B6813F4807FCED15E
:10275000FEF760FF801B0228F5D90320B0E0084A8D
:10276000136F43F001031367CFE7054B1A6F42F075
:1027700004021A671A6F42F001021A67C5E700BF28
:10278000003802400000474200700040FEF742FF60
:102790000646524B1B6F13F0020F08D0FEF73AFFAC
:1027A000801B41F288339842F3D9032088E0EDB9C9
:1027B000A369002B00F08380484A926802F00C0263
:1027C000082A51D0022B17D0454B00221A66FEF77B
:1027D00021FF0446414B1B6813F0007F42D0FEF7F7
:1027E00019FF001B0228F5D9032069E03B4A136C4E
:1027F00023F080531364DBE7394B00221A66FEF79F
:1028000009FF0546354B1B6813F0007F06D0FEF725
:1028100001FF401B0228F5D9032051E0E369226A39
:102820001343626A43EA8213A26A5208013A43EAF6
:102830000243E26A43EA0263284A5360284B0122BA
:102840001A66FEF7E7FE0446244B1B6813F0007F70
:1028500006D1FEF7DFFE001B0228F5D903202FE08A
:1028600000202DE000202BE0012B2BD01B4B5B68C0
:1028700003F48001E269914226D103F03F02216A0C
:102880008A4223D1616A47F6C0721A40B2EB811FB7
:102890001ED103F44031A26A5208013AB1EB024F53
:1028A00018D103F07063E26AB3EB026F14D1002019
:1028B00006E001207047012002E0012000E0002036
:1028C00002B070BD0120FBE70120F9E70120F7E726
:1028D0000120F5E70120F3E70120F1E7003802408D
:1028E0000000474208B5254B9B6803F00C03042BFE
:1028F0003FD0082B3FD1214B5A6802F03F025B6862
:1029000013F4800F12D01D4B5968C1F388111C4875
:102910000023A1FB0001FDF79FFE184B5B68C3F38A
:10292000014301335B00B0FBF3F025E0134B596822
:10293000C1F3881C4FEA4C11B1EB0C006EEB0E0E8C
:102940004FEA8E1343EA90638101091A63EB0E0389
:10295000DB0043EA5173C90011EB0C0C43F1000397
:10296000990200234FEA8C2041EA9C51FDF774FE46
:10297000D3E7034800E0034808BD00BF0038024029
:10298000001BB7000024F400002800F09B8070B505
:102990000D4604464F4B1B6803F007038B4208D2D9
:1029A000CBB24C4A1370136803F007038B4240F01C
:1029B0008B80236813F0020F17D013F0040F04D09C
:1029C000454A936843F4E0539360236813F0080F7B
:1029D00004D0414A936843F4604393603E4A93684D
:1029E00023F0F003A1680B439360236813F0010FF9
:1029F00032D06368012B21D09A1E012A25D9364A8C
:102A0000126812F0020F61D033498A6822F0030283
:102A100013438B60FEF7FEFD06462F4B9B6803F0C9
:102A20000C036268B3EB820F16D0FEF7F3FD801B38
:102A300041F288339842F0D9032042E0264A1268D6
:102A400012F4003FE0D101203BE0234A126812F06B
:102A5000007FD9D1012034E01E4B1B6803F007032F
:102A6000AB4207D9EAB21B4B1A701B6803F007038D
:102A7000AB422DD1236813F0040F06D0164A936899
:102A800023F4E053E1680B439360236813F0080FCD
:102A900007D0114A936823F46043216943EAC103D4
:102AA0009360FFF71FFF0C4B9B68C3F303130B4AA4
:102AB000D35CD8400A4B18600A4B1868FEF75EFDDD
:102AC000002070BD012070470120FAE70120F8E7DF
:102AD0000120F6E7003C024000380240586E000832
:102AE0000000002008000020014B1868704700BF5C
:102AF0000000002008B5FFF7F7FF044B9B68C3F305
:102B00008223034AD35CD84008BD00BF003802408E
:102B1000686E000808B5FFF7E7FF044B9B68C3F336
:102B20004233034AD35CD84008BD00BF003802409E
:102B3000686E000800285AD010B50446436A33B9BD
:102B40004368B3F5827F05D00023C36102E0002310
:102B5000036143610023A36294F85130002B40D0FD
:102B6000022384F851302268136823F04003136075
:102B7000636803F48273A26802F404421343E268B8
:102B800002F400621343226902F0020213436269F5
:102B900002F001021343A26902F400721343E269D6
:102BA00002F038021343226A02F080021343A26A41
:102BB00002F40052216813430B60638B03F004039B
:102BC000626A02F01002216813434B602268D369E5
:102BD00023F40063D36100206065012384F8513041
:102BE00010BD84F850302046FEF7AEF9B8E701205A
:102BF0007047026802F10C0353E8003F23F490731E
:102C00000C3242E800310029F3D1026802F11403CA
:102C100053E8003F23F00103143242E80031002959
:102C2000F3D1036B012B05D0202380F83E30002325
:102C300003637047026802F10C0353E8003F23F07E
:102C400010030C3242E800310029F3D1ECE790F890
:102C50003D30DBB2212B01D0022070478368B3F5F1
:102C6000805F17D0036A5A1C02621A7803685A60A0
:102C7000C38C9BB2013B9BB2C3844BB90268D3683F
:102C800023F08003D3600268D36843F04003D3602D
:102C9000002070470369002BE4D1036A1B88026897
:102CA000C3F308035360036A02330362E0E70000E2
:102CB00038B504460268136923F44053C1680B43D6
:102CC000136183680269134342691343C2691A435B
:102CD0000168CB6823F4164323F00C031343CB6045
:102CE0000268536923F4407381690B43536103689D
:102CF000314A934206D002F58062934202D0FFF738
:102D0000F9FE01E0FFF706FFE369B3F5004F29D0B4
:102D10000021031849411B1841F10001C90041EA93
:102D20005371DB00181863684FEA83024FEA93730C
:102D300041F10001FDF790FC204DA5FB0032510947
:102D4000642303FB11031B013233A5FB03235B093F
:102D500003F0F00202EB011203F00F0321681344A9
:102D60008B6038BD0023021843EB0301121841F1B8
:102D70000001C90041EA5271D200101841F100016E
:102D8000626892185B41FDF767FC0C4DA5FB0032B1
:102D90005109642303FB1103DB003233A5FB03233A
:102DA0005B095A0002F4F87202EB011203F0070308
:102DB000216813448B60D4E7001001401F85EB515C
:102DC00058B310B5044690F83D300BB3242384F873
:102DD0003D302268D36823F40053D3602046FFF7C8
:102DE00067FF2268136923F49043136122685369D3
:102DF00023F02A0353612268D36843F40053D3605D
:102E000000202064202384F83D3084F83E3010BD3B
:102E100080F83C30FEF770FAD8E701207047704721
:102E200008B50168CA6822F04002CA60202280F812
:102E30003D20FFF7F4FF002008BD7047704708B53C
:102E4000806B0023C385C384FFF7F8FF08BD70477C
:102E500090F83E30DBB2222B67D18368B3F5805FF8
:102E60004DD0826AB3F5805F04D0002B54D1036942
:102E7000002B51D103685B681370836A013383624E
:102E8000C38D9BB2013B9BB2C385002B4FD100B5D4
:102E900083B00268D36823F02003D3600268D3684C
:102EA00023F48073D3600268536923F001035361F4
:102EB000202380F83E30036B012B33D100230363C2
:102EC000026802F10C0353E8003F23F010030C32B8
:102ED00042E800310029F3D103681A6812F0100F9C
:102EE00006D0002201921A6801925B680193019B4F
:102EF000818DFFF7ACFF002003B05DF804FB026991
:102F0000002AAED1826A03685B68C3F308031380AA
:102F1000836A02338362B3E703685B6803F07F036D
:102F20001370AAE7FFF789FFE5E70220704700204A
:102F30007047000030B583B0044602681368D0685B
:102F4000516913F00F0505D113F0200F02D010F0D6
:102F5000200F19D12DB111F0010119D110F4907F7A
:102F600016D1216B01297DD013F0800F03D010F012
:102F7000800F40F0158113F0400F03D010F0400F88
:102F800040F0128103B030BD2046FFF761FFF9E742
:102F900013F0010F06D010F4807F03D0226C42F0B2
:102FA0000102226413F0040F04D019B1226C42F024
:102FB0000202226413F0020F04D019B1226C42F015
:102FC0000402226413F0080F07D010F0200F00D184
:102FD00019B1226C42F008022264226C002AD1D07E
:102FE00013F0200F02D010F0200F29D123685B6965
:102FF00003F04003226C12F0080F00D163B32046A7
:10300000FFF7F7FD23685B6913F0400F20D02268BB
:1030100002F1140353E8003F23F04003143242E866
:1030200000310029F3D1A36B73B1614A1A65A06B1B
:10303000FFF752F80028A5D0A06B036D9847A1E7D1
:103040002046FFF705FFD1E72046FFF7F7FE99E797
:103050002046FFF7F3FE95E72046FFF7EFFE00233B
:1030600023648FE713F0100F3FF47EAF10F0100FC2
:103070003FF47AAF002301931368019353680193DF
:10308000019B536913F0400F50D0A26B13685B682B
:103090009BB2002B3FF476AFA18D99427FF672AFC1
:1030A000E385D369B3F5807F37D0226802F10C0342
:1030B00053E8003F23F480730C3242E800310029CA
:1030C000F3D1226802F1140353E8003F23F0010317
:1030D000143242E800310029F3D1226802F11403CE
:1030E00053E8003F23F04003143242E80031002946
:1030F000F3D1202384F83E3000232363226802F1B9
:103100000C0353E8003F23F010030C3242E8003177
:103110000029F3D1A06BFEF795FFA18DE38D9BB243
:10312000C91A89B22046FFF792FE2BE7A18DE38DE5
:103130009BB2C91A89B2E38D9BB2002B3FF422AF38
:1031400000293FF41FAF226802F10C0353E8003F4F
:1031500023F490730C3242E800300028F3D1226847
:1031600002F1140353E8003F23F00103143242E854
:1031700000300028F3D1202384F83E30002323635D
:10318000226802F10C0353E8003F23F010030C32D5
:1031900042E800300028F3D12046FFF758FEF1E660
:1031A0002046FFF754FDEDE62046FFF739FEE9E63D
:1031B0003F2E0008842801D003307047002070475C
:1031C000EFF30580003818BF0120704708B500F004
:1031D00077FD002008BD08B5FFF7F2FF10B100F041
:1031E000B7FD08BD00F0AEFDFBE72DE9F04387B069
:1031F00004460F464569BDB18669AEB1D0F804807A
:10320000D0F80090B0F90800FFF7D4FF02960195BE
:1032100000903B4622694946404600F0E1FC05909B
:10322000059807B0BDE8F08365682668D4F810807B
:10323000B4F90800FFF7BEFF05AB019300903B46D1
:103240001FFA88F23146284600F005FD0128E7D034
:103250000020E6E708B500B9012000F0DBFE002001
:1032600008BD08B501B9012100F082FE002008BDAB
:1032700000F1080343604FF0FF328260C3600361D6
:1032800000230360704700230361704743684B606D
:103290009A688A605160996008610368013303602D
:1032A000704730B40D68B5F1FF3F11D000F108034D
:1032B0001C465B681A68AA42FAD963684B60996039
:1032C0008C606160086103680133036030BC704743
:1032D0000469F2E70369416882688A604168516065
:1032E0005A68824206D0002202611A68013A1A60C6
:1032F0001868704782685A60F5E7000082B00023C2
:1033000001930D4B1B68B3F1FF3F08D04FF0500302
:1033100083F31188BFF36F8FBFF34F8FFEE74FF03A
:10332000500383F31188BFF36F8FBFF34F8F019B5F
:10333000002BFCD002B070470C0000200848006849
:10334000006880F308884FF0000080F3148862B6AC
:1033500061B6BFF34F8FBFF36F8F00DF00BF000078
:1033600008ED00E0DFF80C00016841F47001016035
:103370007047000088ED00E04FF0807340F8043C97
:1033800021F0010140F8081C054B40F80C3C40F8C6
:10339000202C6FF0020340F8243C4438704700BFF3
:1033A000FD320008000000000000000000000000E6
:1033B000074B19680868B0E8F04F80F30988BFF33D
:1033C0006F8F4FF0000080F311887047AFF30080DB
:1033D000B08200204FF0500383F31188BFF36F8F4A
:1033E000BFF34F8F0B4A136801331360012B00D0DA
:1033F00070474FF0E023D3F8043D13F0FF0FF7D0F0
:103400004FF0500383F31188BFF36F8FBFF34F8FDB
:10341000FEE700BF0C000020094B1B6843B94FF0CA
:10342000500383F31188BFF36F8FBFF34F8FFEE715
:10343000013B034A13600BB983F31188704700BF47
:103440000C00002000000000000000000000000050
:10345000EFF30980BFF36F8F154B1A681EF0100F42
:1034600008BF20ED108A20E9F04F10602DE9090017
:103470004FF0500080F31188BFF34F8FBFF36F8F71
:1034800000F0EEFD4FF0000080F3118809BC1968D0
:103490000868B0E8F04F1EF0100F08BFB0EC108ABB
:1034A00080F30988BFF36F8F704700BFAFF30080D0
:1034B000B082002008B54FF0500383F31188BFF3AA
:1034C0006F8FBFF34F8F00F04BFC28B14FF0E0231C
:1034D0004FF08052C3F8042D002383F3118808BDF8
:1034E0004FF0E022002313619361054B1B680549EF
:1034F000A1FB03139B09013B536107231361704731
:1035000000000020D34D62104FF0E023D3F8002DCF
:103510003D4B9A421CD04FF0E023D3F8002D3B4B9B
:103520009A421ED030B583B0394B1A78D2B201928C
:10353000FF221A701B78DBB28DF803309DF8033040
:1035400003F05003334A1370334B07221A601BE019
:103550004FF0500383F31188BFF36F8FBFF34F8F8A
:10356000FEE74FF0500383F31188BFF36F8FBFF373
:103570004F8FFEE7284A1368013B13609DF8033024
:103580005B00DBB28DF803309DF8033013F0800F41
:10359000F0D1214B1B68032B08D04FF0500383F36D
:1035A0001188BFF36F8FBFF34F8FFEE71B021A4ADC
:1035B000136003F4E0631360019BDBB2144A1370E1
:1035C0004FF0E024D4F8203D43F47003C4F8203DCC
:1035D000D4F8203D43F07043C4F8203DFFF780FF4E
:1035E00000250E4B1D60FFF7BDFED4F8343F43F0BD
:1035F0004043C4F8343FFFF7A1FE00F031FDFFF770
:103600007DFE284603B030BD71C20F4170C20F412C
:1036100000E400E0880A00208C0A00200C00002052
:10362000EFF305830F2B0FD9114A9B5CDBB2114AD4
:1036300012789A4208D94FF0500383F31188BFF3F0
:103640006F8FBFF34F8FFEE74FF0E023D3F80C3DB1
:1036500003F4E063084A1268934208D94FF050031C
:1036600083F31188BFF36F8FBFF34F8FFEE770476F
:10367000F0E300E0880A00208C0A0020124A12F0D1
:10368000070F1ED0D11D21F00701C1F5F0431344EF
:103690000A460E480260002141601344083B23F0B3
:1036A00007030B48036059601960991A5160136051
:1036B000084B1960084B1960084B4FF000421A6024
:1036C00070474FF4F043E4E7940A0020A8820020FA
:1036D000900A00209C820020988200209482002082
:1036E000164B1A461B688342FBD3516802EB010C50
:1036F000844509D0416800EB010C634509D00360A3
:10370000904219D0106070474068014451601046E3
:10371000F0E710B40A4C2468A3420BD05B6819444C
:10372000416013681B680360904200D010605DF830
:10373000044B70470460F7E7704700BFA882002081
:10374000900A002070B5054600F0F4FA364B1B686D
:10375000A3B1364B1B681D424ED135B1083515F06B
:10376000070F02D025F007050835002D46D0304B55
:103770001B68AB4251D32F4A146804E0FFF77EFF69
:10378000E7E722461C466368AB4202D22368002B5F
:10379000F7D1254B1B68A34241D016680836236831
:1037A000136063685B1B102B10D9601910F0070FB2
:1037B00008D04FF0500383F31188BFF36F8FBFF32E
:1037C0004F8FFEE743606560FFF78AFF6268184924
:1037D0000B689B1A0B60184909688B4201D2164985
:1037E0000B60124B1B681343636000232360134A72
:1037F00013680133136002E0002600E0002600F0A9
:103800003BFB16F0070F0CD04FF0500383F31188E9
:10381000BFF36F8FBFF34F8FFEE70026EFE7002661
:10382000EDE7304670BD00BF900A00209482002072
:1038300098820020A88200209C820020A082002084
:10384000002834D038B50446A0F1080550F8043CEF
:10385000174A1268134208D14FF0500383F31188BE
:10386000BFF36F8FBFF34F8FFEE750F8081C41B1D5
:103870004FF0500383F31188BFF36F8FBFF34F8F67
:10388000FEE723EA020340F8043C00F053FA54F840
:10389000041C084A13680B4413602846FFF720FFF6
:1038A000054A13680133136000F0E6FA38BD70472B
:1038B0009482002098820020A4820020084B1B687C
:1038C0001B6823B9074B4FF0FF321A607047044B57
:1038D0001B68DB68DB685A68024B1A60704700BFE0
:1038E000B4820020888300202DE9F04707469846DF
:1038F000089DDDF824900A9C266B02F18042013A73
:1039000006EB820626F0070600293AD08E464FF0D5
:10391000000CBCF10F0F0BD81EF80C2004EB0C03AD
:1039200083F834201EF80C3013B10CF1010CF0E7D1
:10393000002384F84330062D00D90625E56265642E
:103940004FF0000AC4F848A0201DFFF79CFC04F1CA
:103950001800FFF798FC2461C5F10705A5616462B2
:10396000C4F84CA084F850A0424639463046FFF7D0
:1039700003FD2060B9F1000F01D0C9F80040BDE897
:10398000F087002384F83430D5E7000038B50024F0
:1039900007E004EB840293000E481844FFF768FC2C
:1039A0000134062CF5D90C4D2846FFF761FC0B4C71
:1039B0002046FFF75DFC0A48FFF75AFC0948FFF76D
:1039C00057FC0948FFF754FC084B1D60084B1C606E
:1039D00038BD00BFBC8200205C83002070830020C3
:1039E00094830020C0830020AC830020B482002098
:1039F000B882002010B50446FFF7ECFC214A13689A
:103A000001331360204B1B685BB1204B1B686BB903
:103A10001D4B1B68DA6AE36A9A4207D81A4B1C608E
:103A200004E0194B1C601368012B28D0184A136856
:103A300001331360E06A01238340164A11680B4387
:103A4000136000EB8000211D134B03EB8000FFF798
:103A50001DFCFFF7E1FC0D4B1B687BB10A4B1B689B
:103A6000DA6AE36A9A4209D24FF0E0234FF08052BB
:103A7000C3F8042DBFF34F8FBFF36F8F10BDFFF757
:103A800085FFD3E748830020B0820020A883002070
:103A90005483002058830020BC82002010B50446C7
:103AA00090F8513063B1012B11D0022B0ED04FF0A2
:103AB000500383F31188BFF36F8FBFF34F8FFEE77F
:103AC000006BFFF7BDFE2046FFF7BAFE10BDFFF703
:103AD000B7FEFBE70F4B1B68D3B110B5FFF77AFCBD
:103AE0000D4BDB68DC68201DFFF7F4FB0B4A136805
:103AF000013B1360074A1368013B1360FFF78CFC1E
:103B00002046FFF7CBFF034B1B68002BE6D110BD0F
:103B1000704700BF4C830020C083002048830020F2
:103B200008B5FFF7D7FF074B1B68012BF9D94FF0FA
:103B3000E0234FF08052C3F8042DBFF34F8FBFF343
:103B40006F8FEEE7BC82002070B504460D461D4B1A
:103B50001E681D4B18680430FFF7BCFB50B91A4BA8
:103B60001B68DA6A012303FA02F218490B6823EA98
:103B700002030B60B4F1FF3F0DD03444124B1B68BD
:103B80005C60A64210D9124B18680F4B19680431BB
:103B9000FFF787FB70BD002DEFD00B4B1968043188
:103BA0000C48FFF773FBF5E70B4B1868064B1968D9
:103BB0000431FFF776FB094B1B68A342EAD9074B98
:103BC0001C60E7E7D4830020B082002058830020E7
:103BD000B8820020AC830020B482002088830020BB
:103BE00030B587B00B9C7CB10C9DB5B154250495C4
:103BF000049D542D1AD04FF0500383F31188BFF366
:103C00006F8FBFF34F8FFEE74FF0500383F31188A0
:103C1000BFF36F8FBFF34F8FFEE74FF0500383F377
:103C20001188BFF36F8FBFF34F8FFEE7049D0C9D8C
:103C30002C63022485F8514000240394029505ACBE
:103C400001940A9C0094FFF74FFE0C98FFF7D2FEF8
:103C5000059807B030BD2DE9F04385B0074688468A
:103C600014461E469000FFF76DFD00B381465420B8
:103C7000FFF768FD0546B0B1C0F83090E5B100230C
:103C800085F85130039302950D9B01930C9B009393
:103C90003346224641463846FFF726FE2846FFF7C0
:103CA000A9FE012005E04846FFF7CAFDE6E74FF010
:103CB000FF3005B0BDE8F0834FF0FF30F9E70000BA
:103CC00010B588B000240594069407AA06A905A893
:103CD000FCF770FF059B0293069B0193009423461B
:103CE000079A0E490E48FFF77BFF0E4B186090B104
:103CF0004FF0500383F31188BFF36F8FBFF34F8FE3
:103D0000094B4FF0FF321A60084B01221A60084B32
:103D10001C60FFF7F9FB08B010BD00BF786E00080B
:103D2000213B00088483002088830020A883002092
:103D3000D4830020024A136801331360704700BF28
:103D400050830020014B1868704700BFD4830020C7
:103D500008B5FFF765FC014B186808BDD483002047
:103D6000F8B53A4B1B68002B69D1394B1D680135FA
:103D70001D60C5B9374B1B681B6843B14FF050033A
:103D800083F31188BFF36F8FBFF34F8FFEE7314A84
:103D90001168314B186810601960304A136801339C
:103DA0001360FFF78BFD2E4B1B68AB423DD90027FC
:103DB0002C4B1B68DB6A03EB83039A002A4B9B584E
:103DC000012B00D90127294B1B68002B3CD0012770
:103DD0003AE001271F4B1B681B6843B31D4B1B6850
:103DE000DB68DC6863689D4226D3261D3046FFF7FA
:103DF00071FAA36A1BB104F11800FFF76BFAE36ACA
:103E000001229A401A49086802430A6003EB8303BF
:103E10009A00314614481044FFF738FAE26A114B11
:103E20001B68DB6A9A42D4D2D4E70027D2E70C4B56
:103E30004FF0FF321A60BBE7094A1360B8E70D4A3A
:103E400013680133136000273846F8BD5083002003
:103E5000D4830020B4820020B88200208C8300200C
:103E600088830020B0820020BC820020D8830020FC
:103E7000588300209083002038B5354B1B6843B928
:103E80004FF0500383F31188BFF36F8FBFF34F8F51
:103E9000FEE7FFF79FFA2E4B1A68013A1A601B687B
:103EA000002B4FD12B4B1B680BB900244BE0002497
:103EB000294B1B681BB3284BDB68DC6804F1180036
:103EC000FFF708FA251D2846FFF704FAE06A0123E8
:103ED0008340224A11680B43136000EB800029469F
:103EE0001F4B03EB8000FFF7D1F9E26A1D4B1B6803
:103EF000DB6A9A42DCD31C4B01221A60D8E70CB172
:103F0000FFF7DCFC194B1C6884B9174B1C68D4B153
:103F10004FF0E0234FF08052C3F8042DBFF34F8FD2
:103F2000BFF36F8F01240EE0013C07D0FFF718FFAD
:103F30000028F9D00C4B01221A60F5E70B4B002248
:103F40001A60E2E70024FFF767FA204638BD00BF99
:103F50005083002048830020948300205883002051
:103F6000BC820020B0820020D883002090830020F3
:103F700038B558B10C46054689B94FF0500383F364
:103F80001188BFF36F8FBFF34F8FFEE74FF05003E1
:103F900083F31188BFF36F8FBFF34F8FFEE71B4B87
:103FA0001B6843B14FF0500383F31188BFF36F8F49
:103FB000BFF34F8FFEE7FFF7BDFE154B18682B6868
:103FC0001C44834209D9A34201D82C600EE0A042D0
:103FD00001D32C600AE02C6004E0A34201D8A04287
:103FE00012D22C600021201AFFF7AEFDFFF744FF2C
:103FF00048B94FF0E0234FF08052C3F8042DBFF3CF
:104000004F8FBFF36F8F38BD2C60EFE750830020D8
:10401000D483002010B5A8B10446104B1B6843B1EF
:104020004FF0500383F31188BFF36F8FBFF34F8FAF
:10403000FEE7FFF77FFE00212046FFF785FDFFF733
:104040001BFF48B94FF0E0234FF08052C3F8042D16
:10405000BFF34F8FBFF36F8F10BD00BF50830020A1
:10406000204B1B681BB1204B01221A6070471E4B6E
:1040700000221A601D4B1B68B3FA83F3DBB2C3F155
:104080001F0303EB83018A0019498A5842B94FF094
:10409000500383F31188BFF36F8FBFF34F8FFEE799
:1040A000134903EB830082000A4450684068506063
:1040B00003EB830C4FEA8C0208321144884209D08A
:1040C00003EB83039A000A4B13445B68DA68094BDD
:1040D0001A607047406862469100054A0A44506081
:1040E000EEE700BF50830020D883002058830020D3
:1040F000BC820020B0820020054B1B6833B1054B09
:104100001B680BB1002070470220704701207047E8
:10411000A88300205083002010B58AB001220892A5
:104120000023069307920093019302930393059350
:1041300004930E4C69462046FDF718FB2046FDF718
:10414000B1FB02212046FDF7FEFC0E2309930593E7
:10415000074C69462046FDF709FB2046FDF7A2FB08
:1041600002212046FDF7EFFC0AB010BD64040020D8
:104170008C04002084B000B583B00DF1100C8CE8E5
:104180000F0009490E9B0B6000238B60CB60082356
:104190000B6101AB0F9A6046FDF7B2FB03B05DF80F
:1041A00004EB04B0704700BFDC830020038807EEF7
:1041B000103AB8EE477ADFED117AC7EE276A104B56
:1041C000C3ED006A428807EE102AB8EE477AC7EEC0
:1041D000276AC3ED016A828807EE102AB8EE477A93
:1041E000C7EE276AC3ED026AC28807EE102AB8EE4E
:1041F000477AC7EE276AC3ED036A70470000C842DA
:104200000000001010B58AB0044601AB03AA0021DB
:10421000FDF7F4FB434B9C4204D0434B9C4278D0C7
:104220000AB010BD039BA3F20123102BF5D801A205
:1042300052F823F07942000899420008BF42000872
:10424000E54200081B4200081B4200081B42000810
:104250001B4200081B4200081B4200081B420008CA
:104260001B4200081B4200081B4200081B420008BA
:104270001B4200080B4300082C4A536A591C516228
:10428000322B04DC01A9104601F0ECFDC5E701A9C1
:10429000264801F07BFDC0E7244AD2F8AC34591C13
:1042A000C2F8AC14322B05DC01A902F5916001F0D3
:1042B000D9FDB2E701A91E4801F068FDADE71B4A30
:1042C000D2F83439591CC2F83419322B05DC01A953
:1042D00002F5116001F0C6FD9FE701A9154801F044
:1042E00055FD9AE7114AD2F8BC3D591CC2F8BC1DD5
:1042F000322B05DC01A902F6985001F0B3FD8CE7E2
:1043000001A90D4801F042FD87E701A8FFF74EFF24
:1043100083E7039BB3F59A7F82D1019A074B1A601A
:104320007EE700BF640400208C040020A8840020E5
:1043300030890020B88D0020409200208C9700200A
:1043400082B0084B5B680193019A074B1B689A4245
:1043500003D2064A136801331360019A024B1A60B4
:1043600002B07047001000E00084002004840020A8
:10437000104AD2F8FC3043F08073C2F8FC300E4B88
:10438000002159601A6842F001021A600B4B03FBCE
:1043900000F00B4B18600B4BA3FB00239B090A4A50
:1043A00013600A4BA3FB0030800C094B1860094BCB
:1043B0001960704700ED00E0001000E040420F007F
:1043C000F4830020D34D6210F883002083DE1B436A
:1043D000FC8300200484002000B52DED028B83B007
:1043E0000D4B5B680193019B02689B1A07EE903AA4
:1043F000F8EE677A094B93ED007AB8EE477A87EECC
:10440000878A019B0360FFF79BFFB0EE480A03B069
:10441000BDEC028B5DF804FB001000E0F48300208B
:1044200010B4164B1B685C6944F040045C61DC68A6
:1044300044F01004DC60124B1C68236823F0010375
:10444000236003E01C6824F001041C600C4B1B6813
:104450001C6814F0010FF5D10A4C9C60D8601961FA
:104460005A601A6842F480221A60054B1A68136871
:1044700043F0010313605DF8044B7047FC09002012
:10448000980800200448004008B5034824228118F9
:10449000FFF7C6FF08BD00BF3C84002010B591F8AF
:1044A00000E04B784EEA032ECEF30A0EA0F800E0AF
:1044B000AEF5806E1FFA8EFEA0F800E091F801C004
:1044C0008B784FEADC0C4CEA431CCCF30A0CA0F8C6
:1044D00002C0ACF5806C1FFA8CFCA0F802C08B788F
:1044E000CA789B0943EA82030A7943EA8223C3F329
:1044F0000A038380A3F580639BB283800A794C7999
:10450000520842EAC412C2F30A02C280A2F58062D3
:1045100092B2C2800EF1050E1FFA8EFEBEF10A0F96
:1045200001D8002404800CF1050C1FFA8CFCBCF1AE
:104530000A0F01D80024448005339BB20A2B01D80E
:1045400000238380053292B20A2A01D80023C38057
:104550004B799B0903724B79C3F301134372B0F992
:104560000030002BB8BF5B429BB2B3F5257F2ED83D
:10457000B0F90230002BB8BF5B429BB2B3F5257F88
:1045800025D8B0F90430002BB8BF5B429BB2B3F51D
:10459000257F1CD8B0F90630002BB8BF5B429BB218
:1045A000B3F5257F13D88B79CA7943EA0223438177
:1045B0000B7A4A7A43EA022383810B7B83734B7B1A
:1045C000C3738B7BCA7B43EA0223038206E000238A
:1045D000036043608360C3600361838210BD000099
:1045E00070B52DED028B002628E0DFED232A9FED2C
:1045F000238A4FF4916404FB06F505F1D800204CA2
:10460000204411220121F0EE624A9FED1E4ADFEDA7
:104610001E3A9FED1E3AB2EE0E2AF2EE001AB7EEE7
:10462000001AF0EE480A9FED1A0A043000F0ADFDC2
:104630002C4418EE103AC4F82E300136032ED4DD87
:104640009FED0D1ADFED130A47220521DFED124A17
:10465000B0EE414ADFED0C3AB0EE603AF0EE412A9E
:10466000B2EE042AF0EE421A9FED0C0A0C4800F05C
:104670008CFDBDEC028B70BD000000000000FA450F
:10468000A88400206F12833A0000C8420000FA4359
:1046900000007A46000096430AD7233C0080BB44C2
:1046A000E09600200C4B1A785A700C4B1B7A012BA9
:1046B00006D0022B08D0094B5B7A022B08D070473A
:1046C000054A02211170F4E7034B00221A70F2E749
:1046D000014B01221A70F2E7848400202484002018
:1046E00010B588B0174B90F901201A70B0F900206E
:1046F0005A7090F903209A70B0F90220DA7090F99C
:1047000005201A71B0F904205A7190F907209A71A6
:10471000B0F90620DA710C4C07934FF4007306933E
:10472000EC4604F1100EBEE80F00ACE80F009EE866
:1047300003008CE8030094E80F00FFF71BFD08B0AE
:1047400010BD00BFC89600206404002008B50648CC
:104750000023038043808380C3800381438183815E
:10476000C381FFF7BDFF08BDD096002008B501F05A
:1047700025F8264BB3F9002007EE902AF8EEE77AE9
:104780009FED236A87EE867A9FED225A27EE057AFF
:104790002149D1ED016AF6EE007A66EEA76A37EE9E
:1047A000267A1E4A82ED017AB3F9020006EE900ADB
:1047B000F8EEE66ADFED1A5A66EEA56AC6EE867A6C
:1047C00067EE857A91ED027A77EE877AC2ED027A0A
:1047D000B3F9041007EE101AB8EEC77A27EE257A5F
:1047E000C7EE067A9FED0F7A27EE877AB3F90A3083
:1047F00007EE903AF8EEE77AF1EE046A67EEA67AF1
:1048000077EE277AC2ED037A08BD00BF248400202A
:104810000000254400409C45989700208484002097
:10482000CDCC4C3F0000B44382B08446DFED637AC8
:10483000B4EEE70AF1EE10FA09D9DFED617AB4EED1
:10484000E70AF1EE10FA04DB9FED5D0A01E09FED4F
:104850005B0ADFED5A7AF4EEE70AF1EE10FA09D9B5
:10486000DFED577AF4EEE70AF1EE10FA04DBDFED44
:10487000540A01E0DFED510ADFED527AB4EEE71A97
:10488000F1EE10FA09D9DFED507AB4EEE71AF1EE45
:1048900010FA04DB9FED4C1A01E09FED4A1A70EE0E
:1048A000607A9FED4A7A21EE071A31EE011A37EE4F
:1048B000C17A9FED476A27EE467ADFED466A27EE1A
:1048C000267ABDEEC77A17EE103AADF80030B1EE99
:1048D000400A30EE600A31EE007A27EE067A27EEC3
:1048E000267ABDEEC77A17EE103AADF8023030EEF8
:1048F000410A20EE460A20EE260ABDEEC00A10EE5E
:10490000103AADF8043077EE817A67EE867A67EE7A
:10491000A67AFDEEE77A17EE903AADF8063000235E
:104920009FED2D7A07E0514207EE901AF8EEE77AF4
:104930000EE00133DBB2032B18D802AA02EB4302CC
:1049400032F9082C002AEEDD07EE902AF8EEE77A1D
:10495000B4EEE77AF1EE10FAEBD5002AB8BF524276
:1049600092B207EE902AB8EEE77AE2E7DFED1B7A23
:10497000B4EEE77AF1EE10FA18DDC7EE876A00238D
:10498000032B13D802AA02EB430232F9081C07EEEC
:10499000901AF8EEE77A67EEA67AFDEEE77A17EE60
:1049A000901A22F8081C0133DBB2E9E76B4603CB0F
:1049B000CCF80000CCF8041002B0704700409CC551
:1049C00000409C450000B4C30000B443981CC040A4
:1049D0006ABE1640CDCCCC3E0000000000A00C46C4
:1049E00010B500241BE00F484FF4916304FB03F360
:1049F000C25E00EE102A0C4A32F9142000EE902A12
:104A0000F8EEE00AB8EEC00A184401F077F9BDEEFE
:104A1000C00A064B10EE102A23F814200134032C90
:104A2000E1DD10BDA8840020A0840020988400202F
:104A300008B5084B084893ED031AD3ED020A93ED2D
:104A4000010AFFF7F1FEFFF7CBFF0448FFF748FE2E
:104A500008BD00BF84840020A0840020988400202A
:104A600008B5044B00225A609A60DA60FFF7E0FF55
:104A700008BD00BF8484002030B583B0144B93E898
:104A8000030002AB03E90300124CDFED130AC4ED8F
:104A9000010AC4ED020A114D95ED000A104800F01C
:104AA000BBFB84ED030AFFF7C3FF2868FBF7F4FCA8
:104AB00005A3D3E90023FBF7B1FD08B903B030BD6E
:104AC0006846FFF70DFEF9E7333333333333D33F13
:104AD000086E000884840020000000008C970020ED
:104AE000E096002008B5FFF741FEFFF7A1FF08BDE3
:104AF00008B52DED028B144B93ED007ADFED137AA0
:104B000087EE270AF1EE408A01F0C4FAB0EE408A3F
:104B1000B0EE680A01F0F6FA0D4BD3ED017A67EEBC
:104B2000886A93ED027A27EE006A76EE866A60EE76
:104B3000677A27EE080A37EE800AC3ED016A83ED33
:104B4000020ABDEC028B08BD8C970020333365420E
:104B50008484002008B5FFF709FEDFED250A254B08
:104B600093ED000A244800F057FB244B83ED030A21
:104B7000234BB3F90030002BB8BF5B429BB20A2B2A
:104B800023D81F4BB3F90230002BB8BF5B429BB256
:104B90000A2B1AD81A4BB3F90430002BB8BF5B426A
:104BA0009BB20A2B11D8164BB3F90630002BB8BFB5
:104BB0005B429BB20A2B08D8114BB3F90A30002B89
:104BC000B8BF5B429BB2012B04D9FFF791FFFFF7FF
:104BD0002FFF08BD0A4BB3F90C30002BB8BF5B4266
:104BE0009BB2012BF1D8054B0022DA60EDE700BF44
:104BF000000000008C970020E096002084840020B4
:104C00002484002008B5FFF7B1FD124A137C92F905
:104C10001020002A14DB03F09003902B15D00E4BCC
:104C20001B7803EB83035A0007EE902AF8EEE77A2D
:104C30000A4BC3ED037AFFF75BFFFFF7F9FE08BDF0
:104C400005490A7801320A70E5E7034B00221A7021
:104C5000E5E700BF248400208A9700208484002098
:104C600000B583B0FFF7BCFC184B00221A70FEF7AA
:104C7000B2FA019005E0FFF76DFF022101A8FEF7EF
:104C8000F0FAFFF70FFD114B1B78052BF5D801A2A9
:104C900052F823F0BF4C0008C54C0008AD4C00088A
:104CA000774C0008B34C0008B94C0008FFF71AFF16
:104CB000E3E7FFF7A7FFE0E7FFF7DEFEDDE7FFF73B
:104CC000CFFEDAE7FFF742FDD7E700BF848400207C
:104CD00010B58AB0114B1B8B03EB830303EB8303EB
:104CE0009A00C2F307238DF820308DF821200C4C58
:104CF00008AB07934FF404730693EC4604F1100ECF
:104D0000BEE80F00ACE80F009EE803008CE803004B
:104D100094E80F00FFF72EFA0AB010BD08840020B7
:104D20006404002010B58AB00E4B9B7EC3F3800351
:104D30008DF820300C4C08AB07934FF49A73069310
:104D4000EC4604F1100EBEE80F00ACE80F009EE840
:104D500003008CE8030094E80F00FFF70BFA0AB099
:104D600010BD00BF088400208C04002008B5FFF7A8
:104D7000AFFFFFF7D7FF6420FEF76CFAF7E7D0F834
:104D80009430FBB1826807EE902A5B6807EE103A18
:104D900037EE877A836907EE903AC36906EE903A58
:104DA00077EEA67AF6EE006A67EEA67A67EE277AC5
:104DB000D0F8903007EE103A67EE877A17EE903A07
:104DC00003637047836807EE903A836907EE103AF1
:104DD000C36906EE903A37EE267AF6EE006A27EEC1
:104DE000267A67EE877AD0F8903007EE103A67EEB1
:104DF000877A17EE903A03637047836907EE903A1B
:104E0000836A07EE103A27EE877AB5EEC07AF1EEA4
:104E100010FA2ADDF5EEC07AF1EE10FA20DD436DCE
:104E200007EE103AB4EEE77AF1EE10FA1DDA036DF0
:104E300006EE903A37EE266AB4EEE76AF1EE10FA23
:104E400011DB76EEE77A77EE277A87EEA67A036BA8
:104E500007EE903A27EE277A17EE103A0363704771
:104E6000F1EE677ADBE7002303637047836A06EE9F
:104E7000103A036B06EE903A76EE266A224BC3EDAB
:104E8000006A436A07EE903A36EE277AC36A07EE65
:104E9000903A77EE277A1D4BC3ED007AF5EEC07A93
:104EA000F1EE10FA2DDD036C07EE103AB4EEE77A5E
:104EB000F1EE10FA0BD5836907EE903A26EE276AD9
:104EC000B5EEC06AF1EE10FA01DD00230363436C16
:104ED00007EE903AF4EEE76AF1EE10FA04DD0023F3
:104EE000036317EE903A8362F1EE677AF4EEE76AB5
:104EF000F1EE10FA04D50023036317EE903A8362B3
:104F00007047F1EE677ACEE79097002094970020E3
:104F1000C36A06EE103AD0F8903007EE903A26EECB
:104F2000276AC36D07EE103A77EE877AC6EE276AD6
:104F3000C36B06EE103A27EE067A87EE276A76EE06
:104F4000866A16EE903AC3627047436B06EE103ADB
:104F5000D0F8903007EE903A26EE276A836D07EE80
:104F6000103A77EE877AC6EE276A836B06EE103A20
:104F700027EE067A87EE276A76EE866A16EE903A74
:104F800043637047436B026C07EE902A07EE103ABA
:104F9000B4EEE77AF1EE10FA00DD4263436BF1EE16
:104FA000677A07EE103AB4EEE77AF1EE10FA02D51E
:104FB00017EE903A43637047436A026C07EE902AFB
:104FC00007EE103AB4EEE77AF1EE10FA00DD426235
:104FD000436AF1EE677A07EE103AB4EEE77AF1EE43
:104FE00010FA02D517EE903A43627047436B026C99
:104FF00007EE902A9FED287A67EE877A07EE103A3F
:10500000B4EEE77AF1EE10FA33D4036807EE903A83
:10501000B0EEE77ADFED216AB4EEE67AF1EE10FA4F
:1050200027D4036906EE903A77EEE67AF0EEE77A57
:10503000C7EE876ADFED1A7AF4EEE76AF1EE10FA4E
:1050400018DDD0F89930D0F89D20013342F10002EC
:10505000C0F89930C0F89D20D0F89910D0F89D3054
:1050600040F2F512914273F1000302D3012380F85C
:10507000A1307047002280F8992080F89A2080F8AB
:105080009B2080F89C2080F89D2080F89E2080F84E
:105090009F2080F8A020DFE76F12833A17B7D1383E
:1050A0003333733F10B52DED028B0446D0F89430A6
:1050B0000BB3B0F86020022A4DD8C26807EE902AE0
:1050C0009B6807EE103A37EE877A436907EE903A0D
:1050D000036906EE903A77EEE67A67EE277AD0F823
:1050E000902007EE102AC7EE877A17EE903AC36237
:1050F000BDEC028B10BDB0F86030022B16D8C3682F
:1051000007EE903A436907EE103A036906EE903ACB
:1051100037EE667A67EE877AD0F8902007EE102A8D
:10512000C7EE877A17EE903AC362E1E7C36808EEEC
:10513000103A036900EE903AD0F8903000EE103A41
:10514000F1EE600A623000F0E1FC28EE008A18EE11
:10515000103AE362CCE7C26808EE102A9B6807EEBB
:10516000903A38EE278A036900EE903AD0F89030F2
:1051700000EE103AF1EE600A623000F0C7FC28EE53
:10518000008A18EE103AE362B2E770B5044616469C
:1051900011EE103A836410EE903A436410EE103A28
:1051A00003640025056011EE903A436012EE103A58
:1051B000836012EE903AC360056313EE103A036504
:1051C00013EE903A436514EE103A836514EE903A6C
:1051D000C365A0F86010623000F06BFC84F88C505E
:1051E00084F88D5084F88E5084F88F5084F898603D
:1051F00084F8995084F89A5084F89B5084F89C5015
:1052000084F89D5084F89E5084F89F5084F8A050F4
:1052100084F8A150656370BD10B52DED028B044676
:10522000F0EE408AB0EE608A90F99830002BC0F220
:10523000BF8004F18C00FFF7CFF810EE103AC4F8ED
:10524000903018EE903A236118EE103A236038EE51
:10525000688A18EE103AA361D4F8A2300BB1204648
:105260009847A36900EE903AF5EEC00AF1EE10FA05
:1052700040F3A18007EE903AA36C07EE103AB4EE2B
:10528000E77AF1EE10FA40F18480D4F89430002BE4
:1052900000F09480626807EE902A1A6807EE102AE0
:1052A00077EE877A60EEA77A17EE902A6262A2689C
:1052B00007EE902A5A6807EE102A77EE877A60EE9A
:1052C000A77AD4F8902000EE102A67EE807A17EEC5
:1052D000902A2263B4F86020022A00F2A680E268D5
:1052E00007EE902A9B6807EE103A77EE877AE3691B
:1052F00007EE103A70EEC70A67EEA00AC0EE807A99
:1053000017EE903AE362D4F8A6300BB120469847E6
:1053100094F8983013F0040F40F0998094F8983086
:1053200013F0200F40F0978094F8983013F0020F9C
:1053300040F0958094F8983013F0400F40F093803F
:1053400094F8983013F0010F40F09180236B07EE32
:10535000903AA36A07EE103A77EE877A17EE903A02
:10536000A362636A07EE103A77EE877AE36A07EE84
:10537000103A77EE877A17EE903A636394F8983094
:1053800013F0100F77D12046FFF7FCFD2046FFF702
:1053900013FE23696361636BA363E26AE263A2693C
:1053A000E261226B226200EE103ABDEC028B10BD6E
:1053B000FFF71CFE3DE7F1EE607A5DE7636807EEFC
:1053C000903A60EEA77A17EE903A6362A36807EE10
:1053D000903A60EEA77AD4F8903000EE103A67EE7B
:1053E000807A17EE903A2363B4F86030022B0FD81E
:1053F000E368E26907EE902A70EEE70A07EE903A5A
:1054000067EEA00AC0EE807A17EE903AE3627AE780
:10541000E36808EE103A04F1620000F077FB28EE32
:10542000008A18EE103AE3626DE7E26808EE102A8F
:105430009B6807EE903A38EE278A04F1620000F08C
:1054400065FB28EE008A18EE103AE3625BE720461F
:10545000FFF795FC62E72046FFF7CFFC64E72046A4
:10546000FFF720FE66E72046FFF752FD68E720467B
:10547000FFF7FCFC6AE72046FFF767FD83E710B5FE
:105480002DED028B0446B0EE408A1830FEF7A4FFE3
:1054900010EE103AE36120EE088A236A07EE903A94
:1054A00030EE277AC8EE070AE36806EE903A67EE18
:1054B000A67AC7EE876A70EEA60A10EE903AE3600D
:1054C000238E022B50D8236907EE903A70EEE70A3C
:1054D000C0EE807A17EE903A6362B4F85C30022B2B
:1054E0004AD8636A07EE903AE36A07EE103A77EE1D
:1054F000C77AE26907EE102AC7EE877A17EE903A6C
:10550000A362236807EE903AE36807EE103A27EEAD
:10551000877A636800EE103A636A07EE903A20EEED
:10552000270A77EE007AA36800EE103AA36A07EE26
:10553000103A20EE070A37EE800A10EE103AC4F84F
:105540008830D4F88C3001EE103AF1EE410A00F0C8
:105550007BFA10EE103AC4F88830E3682361636A7E
:10556000E362BDEC028B10BD04F1320000F0CEFA14
:1055700010EE103A6362B0E7636A00EE903AE369B6
:1055800000EE103A04F15E0000F0C0FA10EE103A9E
:10559000A362B6E738B52DED028B0446B0EE408A23
:1055A00010EE905A1C30FEF717FF10EE103A2362EF
:1055B00018EE103AE3606561A38E022B00F2928030
:1055C000236907EE903A38EE678AC8EE007A17EE44
:1055D000903AA362B4F86030022B00F28D80A36A87
:1055E00007EE903A236B07EE103A77EEC77A226AFD
:1055F00007EE102AC7EE877A17EE903AE362236827
:1056000006EE903AE36806EE103A26EE866A636884
:1056100007EE103AA36A06EE903A27EE267A76EE67
:10562000076AA36807EE903AE36A07EE103A67EE5E
:10563000877A36EEA77A636907EE903A77EE677A53
:1056400017EE903AC4F88C30236A07EE103A67EEF2
:10565000877A636A06EE903A37EE267A87EE870AF3
:10566000D4F8943007EE903A66EEA76AC6EE877AD1
:1056700030EE270A10EE103AC4F88C30D4F8983087
:1056800001EE103AF1EE410A00F0DEF910EE103AA8
:10569000C4F88C30B5EEC00AF1EE10FA3ADDB0EE87
:1056A000407AA36907EE903AD4F8983006EE903A23
:1056B00067EEA67AF4EEC77AF1EE10FA2DD510EE69
:1056C000103AC4F89030E3682361A36A236310EEB4
:1056D000103AC4F89430D4F8903000EE103ABDEC93
:1056E000028B38BDF0EE480A04F1360000F00EFAE5
:1056F00010EE103AA3626DE7A36A00EE903A236AB7
:1057000000EE103A04F1620000F000FA10EE103AD8
:10571000E36274E7B1EE407AC3E70023C4F8903047
:10572000D1E700000378042B42D8DFE803F0030A36
:1057300011223E0011B10123037070470023037052
:10574000704711B102230370704700230370704744
:1057500061B103230370174B984203D0164B00220C
:105760001A837047143B0022DA82704700230370CB
:105770007047B9B10F4B984209D00F4A138B591C8F
:105780001183B3F5487F13D9042303707047A3F145
:105790001402D38A591CD182B3F5487F08D9042357
:1057A0000370704700230370704709B9002303702A
:1057B000704700BFAC9700209897002038B5984BF1
:1057C0001B7C13F0100F00F09880964A012191760F
:1057D0009549116113F0010F00F09E80914A9349A1
:1057E000B1F9001007EE901AF8EEE77A92ED027A1E
:1057F00077EE877AC2ED027A13F0040F00F0A280F0
:105800008A4BB3F900305B42864A07EE903AF8EED5
:10581000E77A92ED017A77EE277AC2ED017A804B32
:105820009B7C13F0010F00F0A380804BB3F9003094
:105830005B427C4A07EE903AF8EEE77A92ED037A03
:1058400077EE277AC2ED037A764BD3ED016A93EDBA
:10585000047AF1EE477AF4EEE76AF1EE10FA00F21C
:105860009D80C3ED017A6F4BD3ED026AF4EEE67AC8
:10587000F1EE10FAC0F29C80C3ED027A694BD3EDD1
:10588000036AF4EEE67AF1EE10FAC0F29B80C3ED03
:10589000037A644BD3ED017A9FED657AF4EEC77A13
:1058A000F1EE10FA00F2988083ED017A5D4BD3EDB2
:1058B000027A9FED5F7AF4EEC77AF1EE10FA00F209
:1058C000978083ED027A574BD3ED037A9FED597A97
:1058D000F4EEC77AF1EE10FA00F2968083ED037AC7
:1058E0004F4D504CA97B04F11400FFF71BFFE97BDF
:1058F00004F11500FFF716FF38BD13F0200F05D097
:10590000484A022191764C49116163E7454A0021DA
:1059100091764A4911615DE713F0020F0ED0414ABA
:105920004249B1F9001007EE901AB8EEE77AD2EDCD
:10593000027A77EEC77AC2ED027A5DE7394A002132
:10594000916059E713F0080F0ED0364B374AB2F981
:10595000002007EE902AF8EEE77A93ED017A77EED1
:10596000877AC3ED017A5AE72E4B00225A6056E738
:1059700013F0020F0ED02B4B2C4AB2F9002007EE89
:10598000902AF8EEE77A93ED037A77EE877AC3ED03
:10599000037A59E7234B0022DA6055E7F4EEC76A31
:1059A000F1EE10FAFFF65FAF1E4B83ED017A5AE776
:1059B000B4EEE67AF1EE10FA3FF660AF194B83EDE4
:1059C000027A5BE7B4EEE67AF1EE10FA3FF661AFE9
:1059D000144B83ED037A5CE79FED197AF4EEC77AF6
:1059E000F1EE10FAFFF662AF0E4B83ED017A5DE740
:1059F0009FED137AF4EEC77AF1EE10FAFFF663AF7B
:105A0000084B83ED027A5EE79FED0E7AF4EEC77ADB
:105A1000F1EE10FAFFF664AF024B83ED037A5FE715
:105A2000248400209897002000C05A4510000020D0
:105A300000409CC50000B4C300401C4500803B45AD
:105A400000409C450000B443B4EEE00AF1EE10FAC9
:105A500007D4B4EEC10AF1EE10FA04DDB0EE410A4B
:105A60007047B0EE600A7047B4EEE01AF1EE10FA3B
:105A70001ED4B4EEC01AF1EE10FA0AD571EE600A27
:105A800001E030EE600AB4EEC10AF1EE10FAF8DC83
:105A90007047F4EEC00AF1EE10FA09DD31EE601A3B
:105AA000B4EEE00AF1EE10FA02D530EE010AF7E7A3
:105AB000704770B50446018000258570C57005717A
:105AC00045718E003046FDF73DFEC4F806003046B5
:105AD000FDF738FEC4F80A000023C4F80E30C4F8FD
